{
  "contractName": "Land",
  "abi": [
    {
      "constant": true,
      "inputs": [
        {
          "name": "interfaceId",
          "type": "bytes4"
        }
      ],
      "name": "supportsInterface",
      "outputs": [
        {
          "name": "",
          "type": "bool"
        }
      ],
      "payable": false,
      "stateMutability": "view",
      "type": "function"
    },
    {
      "constant": true,
      "inputs": [],
      "name": "count",
      "outputs": [
        {
          "name": "",
          "type": "uint256"
        }
      ],
      "payable": false,
      "stateMutability": "view",
      "type": "function"
    },
    {
      "constant": true,
      "inputs": [],
      "name": "name",
      "outputs": [
        {
          "name": "",
          "type": "string"
        }
      ],
      "payable": false,
      "stateMutability": "view",
      "type": "function"
    },
    {
      "constant": true,
      "inputs": [
        {
          "name": "tokenId",
          "type": "uint256"
        }
      ],
      "name": "getApproved",
      "outputs": [
        {
          "name": "",
          "type": "address"
        }
      ],
      "payable": false,
      "stateMutability": "view",
      "type": "function"
    },
    {
      "constant": false,
      "inputs": [
        {
          "name": "to",
          "type": "address"
        },
        {
          "name": "tokenId",
          "type": "uint256"
        }
      ],
      "name": "approve",
      "outputs": [],
      "payable": false,
      "stateMutability": "nonpayable",
      "type": "function"
    },
    {
      "constant": true,
      "inputs": [
        {
          "name": "",
          "type": "uint256"
        }
      ],
      "name": "posts",
      "outputs": [
        {
          "name": "adhaarno",
          "type": "string"
        },
        {
          "name": "fname",
          "type": "string"
        },
        {
          "name": "initiatedwith",
          "type": "string"
        },
        {
          "name": "state",
          "type": "string"
        },
        {
          "name": "district",
          "type": "string"
        },
        {
          "name": "village",
          "type": "string"
        },
        {
          "name": "tokenid",
          "type": "uint256"
        }
      ],
      "payable": false,
      "stateMutability": "view",
      "type": "function"
    },
    {
      "constant": true,
      "inputs": [],
      "name": "gov",
      "outputs": [
        {
          "name": "",
          "type": "address"
        }
      ],
      "payable": false,
      "stateMutability": "view",
      "type": "function"
    },
    {
      "constant": true,
      "inputs": [],
      "name": "postCount",
      "outputs": [
        {
          "name": "",
          "type": "uint256"
        }
      ],
      "payable": false,
      "stateMutability": "view",
      "type": "function"
    },
    {
      "constant": true,
      "inputs": [],
      "name": "totalSupply",
      "outputs": [
        {
          "name": "",
          "type": "uint256"
        }
      ],
      "payable": false,
      "stateMutability": "view",
      "type": "function"
    },
    {
      "constant": false,
      "inputs": [
        {
          "name": "from",
          "type": "address"
        },
        {
          "name": "to",
          "type": "address"
        },
        {
          "name": "tokenId",
          "type": "uint256"
        }
      ],
      "name": "transferFrom",
      "outputs": [],
      "payable": false,
      "stateMutability": "nonpayable",
      "type": "function"
    },
    {
      "constant": true,
      "inputs": [
        {
          "name": "owner",
          "type": "address"
        },
        {
          "name": "index",
          "type": "uint256"
        }
      ],
      "name": "tokenOfOwnerByIndex",
      "outputs": [
        {
          "name": "",
          "type": "uint256"
        }
      ],
      "payable": false,
      "stateMutability": "view",
      "type": "function"
    },
    {
      "constant": false,
      "inputs": [
        {
          "name": "from",
          "type": "address"
        },
        {
          "name": "to",
          "type": "address"
        },
        {
          "name": "tokenId",
          "type": "uint256"
        }
      ],
      "name": "safeTransferFrom",
      "outputs": [],
      "payable": false,
      "stateMutability": "nonpayable",
      "type": "function"
    },
    {
      "constant": true,
      "inputs": [
        {
          "name": "index",
          "type": "uint256"
        }
      ],
      "name": "tokenByIndex",
      "outputs": [
        {
          "name": "",
          "type": "uint256"
        }
      ],
      "payable": false,
      "stateMutability": "view",
      "type": "function"
    },
    {
      "constant": true,
      "inputs": [],
      "name": "electricity",
      "outputs": [
        {
          "name": "",
          "type": "address"
        }
      ],
      "payable": false,
      "stateMutability": "view",
      "type": "function"
    },
    {
      "constant": true,
      "inputs": [
        {
          "name": "tokenId",
          "type": "uint256"
        }
      ],
      "name": "ownerOf",
      "outputs": [
        {
          "name": "",
          "type": "address"
        }
      ],
      "payable": false,
      "stateMutability": "view",
      "type": "function"
    },
    {
      "constant": true,
      "inputs": [],
      "name": "baseURI",
      "outputs": [
        {
          "name": "",
          "type": "string"
        }
      ],
      "payable": false,
      "stateMutability": "view",
      "type": "function"
    },
    {
      "constant": true,
      "inputs": [
        {
          "name": "owner",
          "type": "address"
        }
      ],
      "name": "balanceOf",
      "outputs": [
        {
          "name": "",
          "type": "uint256"
        }
      ],
      "payable": false,
      "stateMutability": "view",
      "type": "function"
    },
    {
      "constant": true,
      "inputs": [],
      "name": "symbol",
      "outputs": [
        {
          "name": "",
          "type": "string"
        }
      ],
      "payable": false,
      "stateMutability": "view",
      "type": "function"
    },
    {
      "constant": true,
      "inputs": [
        {
          "name": "",
          "type": "uint256"
        }
      ],
      "name": "landminted",
      "outputs": [
        {
          "name": "",
          "type": "bool"
        }
      ],
      "payable": false,
      "stateMutability": "view",
      "type": "function"
    },
    {
      "constant": false,
      "inputs": [
        {
          "name": "to",
          "type": "address"
        },
        {
          "name": "approved",
          "type": "bool"
        }
      ],
      "name": "setApprovalForAll",
      "outputs": [],
      "payable": false,
      "stateMutability": "nonpayable",
      "type": "function"
    },
    {
      "constant": false,
      "inputs": [
        {
          "name": "from",
          "type": "address"
        },
        {
          "name": "to",
          "type": "address"
        },
        {
          "name": "tokenId",
          "type": "uint256"
        },
        {
          "name": "_data",
          "type": "bytes"
        }
      ],
      "name": "safeTransferFrom",
      "outputs": [],
      "payable": false,
      "stateMutability": "nonpayable",
      "type": "function"
    },
    {
      "constant": true,
      "inputs": [
        {
          "name": "",
          "type": "uint256"
        }
      ],
      "name": "landno",
      "outputs": [
        {
          "name": "",
          "type": "uint256"
        }
      ],
      "payable": false,
      "stateMutability": "view",
      "type": "function"
    },
    {
      "constant": true,
      "inputs": [
        {
          "name": "tokenId",
          "type": "uint256"
        }
      ],
      "name": "tokenURI",
      "outputs": [
        {
          "name": "",
          "type": "string"
        }
      ],
      "payable": false,
      "stateMutability": "view",
      "type": "function"
    },
    {
      "constant": true,
      "inputs": [
        {
          "name": "owner",
          "type": "address"
        },
        {
          "name": "operator",
          "type": "address"
        }
      ],
      "name": "isApprovedForAll",
      "outputs": [
        {
          "name": "",
          "type": "bool"
        }
      ],
      "payable": false,
      "stateMutability": "view",
      "type": "function"
    },
    {
      "inputs": [],
      "payable": false,
      "stateMutability": "nonpayable",
      "type": "constructor"
    },
    {
      "anonymous": false,
      "inputs": [
        {
          "indexed": false,
          "name": "adhaarno",
          "type": "string"
        },
        {
          "indexed": false,
          "name": "fname",
          "type": "string"
        },
        {
          "indexed": false,
          "name": "initiatedwith",
          "type": "string"
        },
        {
          "indexed": false,
          "name": "state",
          "type": "string"
        },
        {
          "indexed": false,
          "name": "district",
          "type": "string"
        },
        {
          "indexed": false,
          "name": "village",
          "type": "string"
        },
        {
          "indexed": false,
          "name": "tokenid",
          "type": "uint256"
        }
      ],
      "name": "PostCreated",
      "type": "event"
    },
    {
      "anonymous": false,
      "inputs": [
        {
          "indexed": true,
          "name": "from",
          "type": "address"
        },
        {
          "indexed": true,
          "name": "to",
          "type": "address"
        },
        {
          "indexed": true,
          "name": "tokenId",
          "type": "uint256"
        }
      ],
      "name": "Transfer",
      "type": "event"
    },
    {
      "anonymous": false,
      "inputs": [
        {
          "indexed": true,
          "name": "owner",
          "type": "address"
        },
        {
          "indexed": true,
          "name": "approved",
          "type": "address"
        },
        {
          "indexed": true,
          "name": "tokenId",
          "type": "uint256"
        }
      ],
      "name": "Approval",
      "type": "event"
    },
    {
      "anonymous": false,
      "inputs": [
        {
          "indexed": true,
          "name": "owner",
          "type": "address"
        },
        {
          "indexed": true,
          "name": "operator",
          "type": "address"
        },
        {
          "indexed": false,
          "name": "approved",
          "type": "bool"
        }
      ],
      "name": "ApprovalForAll",
      "type": "event"
    },
    {
      "constant": false,
      "inputs": [
        {
          "name": "villagea",
          "type": "address"
        },
        {
          "name": "village",
          "type": "string"
        },
        {
          "name": "district",
          "type": "string"
        }
      ],
      "name": "villageadmin",
      "outputs": [],
      "payable": false,
      "stateMutability": "nonpayable",
      "type": "function"
    },
    {
      "constant": false,
      "inputs": [
        {
          "name": "statea",
          "type": "address"
        },
        {
          "name": "state",
          "type": "string"
        }
      ],
      "name": "stateadmin",
      "outputs": [],
      "payable": false,
      "stateMutability": "nonpayable",
      "type": "function"
    },
    {
      "constant": false,
      "inputs": [
        {
          "name": "dista",
          "type": "address"
        },
        {
          "name": "district",
          "type": "string"
        },
        {
          "name": "state",
          "type": "string"
        }
      ],
      "name": "distadmin",
      "outputs": [],
      "payable": false,
      "stateMutability": "nonpayable",
      "type": "function"
    },
    {
      "constant": false,
      "inputs": [
        {
          "name": "govern",
          "type": "address"
        }
      ],
      "name": "changeadmin",
      "outputs": [],
      "payable": false,
      "stateMutability": "nonpayable",
      "type": "function"
    },
    {
      "constant": false,
      "inputs": [
        {
          "name": "mland",
          "type": "uint256"
        }
      ],
      "name": "mint",
      "outputs": [],
      "payable": false,
      "stateMutability": "nonpayable",
      "type": "function"
    },
    {
      "constant": false,
      "inputs": [
        {
          "name": "tokenId",
          "type": "uint256"
        }
      ],
      "name": "burn",
      "outputs": [],
      "payable": false,
      "stateMutability": "nonpayable",
      "type": "function"
    },
    {
      "constant": false,
      "inputs": [
        {
          "name": "tokenId",
          "type": "uint256"
        },
        {
          "name": "no",
          "type": "string"
        },
        {
          "name": "name",
          "type": "string"
        },
        {
          "name": "state",
          "type": "string"
        },
        {
          "name": "district",
          "type": "string"
        },
        {
          "name": "village",
          "type": "string"
        }
      ],
      "name": "govtransfer",
      "outputs": [],
      "payable": false,
      "stateMutability": "nonpayable",
      "type": "function"
    },
    {
      "constant": false,
      "inputs": [
        {
          "name": "tokenId",
          "type": "uint256"
        },
        {
          "name": "village",
          "type": "string"
        },
        {
          "name": "adhaarbuy",
          "type": "string"
        }
      ],
      "name": "initiatelandtransfer",
      "outputs": [],
      "payable": false,
      "stateMutability": "nonpayable",
      "type": "function"
    },
    {
      "constant": false,
      "inputs": [
        {
          "name": "tokenId",
          "type": "uint256"
        },
        {
          "name": "no",
          "type": "string"
        },
        {
          "name": "fname",
          "type": "string"
        },
        {
          "name": "village",
          "type": "string"
        }
      ],
      "name": "transfer",
      "outputs": [],
      "payable": false,
      "stateMutability": "nonpayable",
      "type": "function"
    },
    {
      "constant": false,
      "inputs": [
        {
          "name": "changee",
          "type": "address"
        }
      ],
      "name": "change",
      "outputs": [],
      "payable": false,
      "stateMutability": "nonpayable",
      "type": "function"
    }
  ],
  "bytecode": "0x60806040526001600d556001600e557348e93e9ad94ea0aad209abe5bc879040447ace98600f60036101000a81548173ffffffffffffffffffffffffffffffffffffffff021916908373ffffffffffffffffffffffffffffffffffffffff16021790555073917937a261789cf3380021944a1464fa38586f0e601060006101000a81548173ffffffffffffffffffffffffffffffffffffffff021916908373ffffffffffffffffffffffffffffffffffffffff160217905550348015620000c557600080fd5b506040518060400160405280600681526020017f6c616e646e6f00000000000000000000000000000000000000000000000000008152506040518060400160405280600481526020017f4c616e640000000000000000000000000000000000000000000000000000000081525081816200014c6301ffc9a760e01b6200022160201b60201c565b620001646380ac58cd60e01b6200022160201b60201c565b6200017c63780e9d6360e01b6200022160201b60201c565b8160099080519060200190620001949291906200032a565b5080600a9080519060200190620001ad9291906200032a565b50620001c6635b5e139f60e01b6200022160201b60201c565b505050506000600f60006101000a81548160ff0219169083151502179055506000600f60016101000a81548160ff0219169083151502179055506000600f60026101000a81548160ff021916908315150217905550620003d9565b63ffffffff60e01b817bffffffffffffffffffffffffffffffffffffffffffffffffffffffff19161415620002be576040517f08c379a000000000000000000000000000000000000000000000000000000000815260040180806020018281038252601c8152602001807f4552433136353a20696e76616c696420696e746572666163652069640000000081525060200191505060405180910390fd5b6001600080837bffffffffffffffffffffffffffffffffffffffffffffffffffffffff19167bffffffffffffffffffffffffffffffffffffffffffffffffffffffff1916815260200190815260200160002060006101000a81548160ff02191690831515021790555050565b828054600181600116156101000203166002900490600052602060002090601f016020900481019282601f106200036d57805160ff19168380011785556200039e565b828001600101855582156200039e579182015b828111156200039d57825182559160200191906001019062000380565b5b509050620003ad9190620003b1565b5090565b620003d691905b80821115620003d2576000816000905550600101620003b8565b5090565b90565b615da580620003e96000396000f3fe608060405234801561001057600080fd5b50600436106102065760003560e01c80635452d67e1161011a578063a04d5402116100ad578063b88d4fde1161007c578063b88d4fde146114ea578063c80fa8ee146115ef578063c87b56dd14611631578063e985e9c5146116d8578063ec1d1bf61461175457610206565b8063a04d540214611105578063a06afebb1461114b578063a0712d681461146c578063a22cb4651461149a57610206565b806370a08231116100e957806370a0823114610df357806391cedae714610e4b57806395d89b4114610fa757806397bb95601461102a57610206565b80635452d67e14610b465780636352211e14610b905780636c0360eb14610bfe5780636fe1a9ae14610c8157610206565b806318160ddd1161019d5780632f745c591161016c5780632f745c591461081357806342842e0e1461087557806342966c68146108e35780634f6ccce71461091157806352dff57d1461095357610206565b806318160ddd146106ff5780631e77933e1461071d57806323b872dd1461076157806326ea7ab8146107cf57610206565b8063095ea7b3116101d9578063095ea7b31461037f5780630b1e7f83146103cd57806312d43a511461069757806317906c2e146106e157610206565b806301ffc9a71461020b57806306661abd1461027057806306fdde031461028e578063081812fc14610311575b600080fd5b6102566004803603602081101561022157600080fd5b8101908080357bffffffffffffffffffffffffffffffffffffffffffffffffffffffff191690602001909291905050506118c6565b604051808215151515815260200191505060405180910390f35b61027861192d565b6040518082815260200191505060405180910390f35b610296611933565b6040518080602001828103825283818151815260200191508051906020019080838360005b838110156102d65780820151818401526020810190506102bb565b50505050905090810190601f1680156103035780820380516001836020036101000a031916815260200191505b509250505060405180910390f35b61033d6004803603602081101561032757600080fd5b81019080803590602001909291905050506119d5565b604051808273ffffffffffffffffffffffffffffffffffffffff1673ffffffffffffffffffffffffffffffffffffffff16815260200191505060405180910390f35b6103cb6004803603604081101561039557600080fd5b81019080803573ffffffffffffffffffffffffffffffffffffffff16906020019092919080359060200190929190505050611a70565b005b6103f9600480360360208110156103e357600080fd5b8101908080359060200190929190505050611c57565b6040518080602001806020018060200180602001806020018060200188815260200187810387528e818151815260200191508051906020019080838360005b83811015610453578082015181840152602081019050610438565b50505050905090810190601f1680156104805780820380516001836020036101000a031916815260200191505b5087810386528d818151815260200191508051906020019080838360005b838110156104b957808201518184015260208101905061049e565b50505050905090810190601f1680156104e65780820380516001836020036101000a031916815260200191505b5087810385528c818151815260200191508051906020019080838360005b8381101561051f578082015181840152602081019050610504565b50505050905090810190601f16801561054c5780820380516001836020036101000a031916815260200191505b5087810384528b818151815260200191508051906020019080838360005b8381101561058557808201518184015260208101905061056a565b50505050905090810190601f1680156105b25780820380516001836020036101000a031916815260200191505b5087810383528a818151815260200191508051906020019080838360005b838110156105eb5780820151818401526020810190506105d0565b50505050905090810190601f1680156106185780820380516001836020036101000a031916815260200191505b50878103825289818151815260200191508051906020019080838360005b83811015610651578082015181840152602081019050610636565b50505050905090810190601f16801561067e5780820380516001836020036101000a031916815260200191505b509d505050505050505050505050505060405180910390f35b61069f612029565b604051808273ffffffffffffffffffffffffffffffffffffffff1673ffffffffffffffffffffffffffffffffffffffff16815260200191505060405180910390f35b6106e961204f565b6040518082815260200191505060405180910390f35b610707612055565b6040518082815260200191505060405180910390f35b61075f6004803603602081101561073357600080fd5b81019080803573ffffffffffffffffffffffffffffffffffffffff169060200190929190505050612062565b005b6107cd6004803603606081101561077757600080fd5b81019080803573ffffffffffffffffffffffffffffffffffffffff169060200190929190803573ffffffffffffffffffffffffffffffffffffffff169060200190929190803590602001909291905050506120f2565b005b610811600480360360208110156107e557600080fd5b81019080803573ffffffffffffffffffffffffffffffffffffffff169060200190929190505050612168565b005b61085f6004803603604081101561082957600080fd5b81019080803573ffffffffffffffffffffffffffffffffffffffff1690602001909291908035906020019092919050505061224e565b6040518082815260200191505060405180910390f35b6108e16004803603606081101561088b57600080fd5b81019080803573ffffffffffffffffffffffffffffffffffffffff169060200190929190803573ffffffffffffffffffffffffffffffffffffffff1690602001909291908035906020019092919050505061230d565b005b61090f600480360360208110156108f957600080fd5b810190808035906020019092919050505061232d565b005b61093d6004803603602081101561092757600080fd5b810190808035906020019092919050505061243d565b6040518082815260200191505060405180910390f35b610b446004803603608081101561096957600080fd5b81019080803590602001909291908035906020019064010000000081111561099057600080fd5b8201836020820111156109a257600080fd5b803590602001918460018302840111640100000000831117156109c457600080fd5b91908080601f016020809104026020016040519081016040528093929190818152602001838380828437600081840152601f19601f82011690508083019250505050505050919291929080359060200190640100000000811115610a2757600080fd5b820183602082011115610a3957600080fd5b80359060200191846001830284011164010000000083111715610a5b57600080fd5b91908080601f016020809104026020016040519081016040528093929190818152602001838380828437600081840152601f19601f82011690508083019250505050505050919291929080359060200190640100000000811115610abe57600080fd5b820183602082011115610ad057600080fd5b80359060200191846001830284011164010000000083111715610af257600080fd5b91908080601f016020809104026020016040519081016040528093929190818152602001838380828437600081840152601f19601f8201169050808301925050505050505091929192905050506124bd565b005b610b4e612d26565b604051808273ffffffffffffffffffffffffffffffffffffffff1673ffffffffffffffffffffffffffffffffffffffff16815260200191505060405180910390f35b610bbc60048036036020811015610ba657600080fd5b8101908080359060200190929190505050612d4c565b604051808273ffffffffffffffffffffffffffffffffffffffff1673ffffffffffffffffffffffffffffffffffffffff16815260200191505060405180910390f35b610c06612e14565b6040518080602001828103825283818151815260200191508051906020019080838360005b83811015610c46578082015181840152602081019050610c2b565b50505050905090810190601f168015610c735780820380516001836020036101000a031916815260200191505b509250505060405180910390f35b610df160048036036060811015610c9757600080fd5b81019080803573ffffffffffffffffffffffffffffffffffffffff16906020019092919080359060200190640100000000811115610cd457600080fd5b820183602082011115610ce657600080fd5b80359060200191846001830284011164010000000083111715610d0857600080fd5b91908080601f016020809104026020016040519081016040528093929190818152602001838380828437600081840152601f19601f82011690508083019250505050505050919291929080359060200190640100000000811115610d6b57600080fd5b820183602082011115610d7d57600080fd5b80359060200191846001830284011164010000000083111715610d9f57600080fd5b91908080601f016020809104026020016040519081016040528093929190818152602001838380828437600081840152601f19601f820116905080830192505050505050509192919290505050612eb6565b005b610e3560048036036020811015610e0957600080fd5b81019080803573ffffffffffffffffffffffffffffffffffffffff169060200190929190505050613024565b6040518082815260200191505060405180910390f35b610fa560048036036060811015610e6157600080fd5b810190808035906020019092919080359060200190640100000000811115610e8857600080fd5b820183602082011115610e9a57600080fd5b80359060200191846001830284011164010000000083111715610ebc57600080fd5b91908080601f016020809104026020016040519081016040528093929190818152602001838380828437600081840152601f19601f82011690508083019250505050505050919291929080359060200190640100000000811115610f1f57600080fd5b820183602082011115610f3157600080fd5b80359060200191846001830284011164010000000083111715610f5357600080fd5b91908080601f016020809104026020016040519081016040528093929190818152602001838380828437600081840152601f19601f8201169050808301925050505050505091929192905050506130f9565b005b610faf613990565b6040518080602001828103825283818151815260200191508051906020019080838360005b83811015610fef578082015181840152602081019050610fd4565b50505050905090810190601f16801561101c5780820380516001836020036101000a031916815260200191505b509250505060405180910390f35b6111036004803603604081101561104057600080fd5b81019080803573ffffffffffffffffffffffffffffffffffffffff1690602001909291908035906020019064010000000081111561107d57600080fd5b82018360208201111561108f57600080fd5b803590602001918460018302840111640100000000831117156110b157600080fd5b91908080601f016020809104026020016040519081016040528093929190818152602001838380828437600081840152601f19601f820116905080830192505050505050509192919290505050613a32565b005b6111316004803603602081101561111b57600080fd5b8101908080359060200190929190505050613b38565b604051808215151515815260200191505060405180910390f35b61146a600480360360c081101561116157600080fd5b81019080803590602001909291908035906020019064010000000081111561118857600080fd5b82018360208201111561119a57600080fd5b803590602001918460018302840111640100000000831117156111bc57600080fd5b91908080601f016020809104026020016040519081016040528093929190818152602001838380828437600081840152601f19601f8201169050808301925050505050505091929192908035906020019064010000000081111561121f57600080fd5b82018360208201111561123157600080fd5b8035906020019184600183028401116401000000008311171561125357600080fd5b91908080601f016020809104026020016040519081016040528093929190818152602001838380828437600081840152601f19601f820116905080830192505050505050509192919290803590602001906401000000008111156112b657600080fd5b8201836020820111156112c857600080fd5b803590602001918460018302840111640100000000831117156112ea57600080fd5b91908080601f016020809104026020016040519081016040528093929190818152602001838380828437600081840152601f19601f8201169050808301925050505050505091929192908035906020019064010000000081111561134d57600080fd5b82018360208201111561135f57600080fd5b8035906020019184600183028401116401000000008311171561138157600080fd5b91908080601f016020809104026020016040519081016040528093929190818152602001838380828437600081840152601f19601f820116905080830192505050505050509192919290803590602001906401000000008111156113e457600080fd5b8201836020820111156113f657600080fd5b8035906020019184600183028401116401000000008311171561141857600080fd5b91908080601f016020809104026020016040519081016040528093929190818152602001838380828437600081840152601f19601f820116905080830192505050505050509192919290505050613b58565b005b6114986004803603602081101561148257600080fd5b8101908080359060200190929190505050613fd9565b005b6114e8600480360360408110156114b057600080fd5b81019080803573ffffffffffffffffffffffffffffffffffffffff16906020019092919080351515906020019092919050505061419b565b005b6115ed6004803603608081101561150057600080fd5b81019080803573ffffffffffffffffffffffffffffffffffffffff169060200190929190803573ffffffffffffffffffffffffffffffffffffffff169060200190929190803590602001909291908035906020019064010000000081111561156757600080fd5b82018360208201111561157957600080fd5b8035906020019184600183028401116401000000008311171561159b57600080fd5b91908080601f016020809104026020016040519081016040528093929190818152602001838380828437600081840152601f19601f820116905080830192505050505050509192919290505050614353565b005b61161b6004803603602081101561160557600080fd5b81019080803590602001909291905050506143cb565b6040518082815260200191505060405180910390f35b61165d6004803603602081101561164757600080fd5b81019080803590602001909291905050506143ec565b6040518080602001828103825283818151815260200191508051906020019080838360005b8381101561169d578082015181840152602081019050611682565b50505050905090810190601f1680156116ca5780820380516001836020036101000a031916815260200191505b509250505060405180910390f35b61173a600480360360408110156116ee57600080fd5b81019080803573ffffffffffffffffffffffffffffffffffffffff169060200190929190803573ffffffffffffffffffffffffffffffffffffffff1690602001909291905050506145ee565b604051808215151515815260200191505060405180910390f35b6118c46004803603606081101561176a57600080fd5b81019080803573ffffffffffffffffffffffffffffffffffffffff169060200190929190803590602001906401000000008111156117a757600080fd5b8201836020820111156117b957600080fd5b803590602001918460018302840111640100000000831117156117db57600080fd5b91908080601f016020809104026020016040519081016040528093929190818152602001838380828437600081840152601f19601f8201169050808301925050505050505091929192908035906020019064010000000081111561183e57600080fd5b82018360208201111561185057600080fd5b8035906020019184600183028401116401000000008311171561187257600080fd5b91908080601f016020809104026020016040519081016040528093929190818152602001838380828437600081840152601f19601f820116905080830192505050505050509192919290505050614682565b005b6000806000837bffffffffffffffffffffffffffffffffffffffffffffffffffffffff19167bffffffffffffffffffffffffffffffffffffffffffffffffffffffff1916815260200190815260200160002060009054906101000a900460ff169050919050565b600e5481565b606060098054600181600116156101000203166002900480601f0160208091040260200160405190810160405280929190818152602001828054600181600116156101000203166002900480156119cb5780601f106119a0576101008083540402835291602001916119cb565b820191906000526020600020905b8154815290600101906020018083116119ae57829003601f168201915b5050505050905090565b60006119e0826147f0565b611a35576040517f08c379a000000000000000000000000000000000000000000000000000000000815260040180806020018281038252602c815260200180615c53602c913960400191505060405180910390fd5b6002600083815260200190815260200160002060009054906101000a900473ffffffffffffffffffffffffffffffffffffffff169050919050565b6000611a7b82612d4c565b90508073ffffffffffffffffffffffffffffffffffffffff168373ffffffffffffffffffffffffffffffffffffffff161415611b02576040517f08c379a0000000000000000000000000000000000000000000000000000000008152600401808060200182810382526021815260200180615cd76021913960400191505060405180910390fd5b8073ffffffffffffffffffffffffffffffffffffffff16611b21614862565b73ffffffffffffffffffffffffffffffffffffffff161480611b505750611b4f81611b4a614862565b6145ee565b5b611ba5576040517f08c379a0000000000000000000000000000000000000000000000000000000008152600401808060200182810382526038815260200180615bc86038913960400191505060405180910390fd5b826002600084815260200190815260200160002060006101000a81548173ffffffffffffffffffffffffffffffffffffffff021916908373ffffffffffffffffffffffffffffffffffffffff160217905550818373ffffffffffffffffffffffffffffffffffffffff168273ffffffffffffffffffffffffffffffffffffffff167f8c5be1e5ebec7d5bd14f71427d1e84f3dd0314c0f7b2291e5b200ac8c7c3b92560405160405180910390a4505050565b6012602052806000526040600020600091509050806000018054600181600116156101000203166002900480601f016020809104026020016040519081016040528092919081815260200182805460018160011615610100020316600290048015611d035780601f10611cd857610100808354040283529160200191611d03565b820191906000526020600020905b815481529060010190602001808311611ce657829003601f168201915b505050505090806001018054600181600116156101000203166002900480601f016020809104026020016040519081016040528092919081815260200182805460018160011615610100020316600290048015611da15780601f10611d7657610100808354040283529160200191611da1565b820191906000526020600020905b815481529060010190602001808311611d8457829003601f168201915b505050505090806002018054600181600116156101000203166002900480601f016020809104026020016040519081016040528092919081815260200182805460018160011615610100020316600290048015611e3f5780601f10611e1457610100808354040283529160200191611e3f565b820191906000526020600020905b815481529060010190602001808311611e2257829003601f168201915b505050505090806003018054600181600116156101000203166002900480601f016020809104026020016040519081016040528092919081815260200182805460018160011615610100020316600290048015611edd5780601f10611eb257610100808354040283529160200191611edd565b820191906000526020600020905b815481529060010190602001808311611ec057829003601f168201915b505050505090806004018054600181600116156101000203166002900480601f016020809104026020016040519081016040528092919081815260200182805460018160011615610100020316600290048015611f7b5780601f10611f5057610100808354040283529160200191611f7b565b820191906000526020600020905b815481529060010190602001808311611f5e57829003601f168201915b505050505090806005018054600181600116156101000203166002900480601f0160208091040260200160405190810160405280929190818152602001828054600181600116156101000203166002900480156120195780601f10611fee57610100808354040283529160200191612019565b820191906000526020600020905b815481529060010190602001808311611ffc57829003601f168201915b5050505050908060060154905087565b601060009054906101000a900473ffffffffffffffffffffffffffffffffffffffff1681565b600d5481565b6000600780549050905090565b7339e79820b097e5c72af6698d76f8829f2ae3849673ffffffffffffffffffffffffffffffffffffffff163373ffffffffffffffffffffffffffffffffffffffff16146120ae57600080fd5b80600f60036101000a81548173ffffffffffffffffffffffffffffffffffffffff021916908373ffffffffffffffffffffffffffffffffffffffff16021790555050565b6121036120fd614862565b8261486a565b612158576040517f08c379a0000000000000000000000000000000000000000000000000000000008152600401808060200182810382526031815260200180615cf86031913960400191505060405180910390fd5b61216383838361495e565b505050565b601060009054906101000a900473ffffffffffffffffffffffffffffffffffffffff1673ffffffffffffffffffffffffffffffffffffffff163373ffffffffffffffffffffffffffffffffffffffff161480156121d15750600f60009054906101000a900460ff165b80156121e95750600f60029054906101000a900460ff165b80156122015750600f60019054906101000a900460ff165b61220a57600080fd5b80601060006101000a81548173ffffffffffffffffffffffffffffffffffffffff021916908373ffffffffffffffffffffffffffffffffffffffff16021790555050565b600061225983613024565b82106122b0576040517f08c379a000000000000000000000000000000000000000000000000000000000815260040180806020018281038252602b815260200180615b1b602b913960400191505060405180910390fd5b600560008473ffffffffffffffffffffffffffffffffffffffff1673ffffffffffffffffffffffffffffffffffffffff16815260200190815260200160002082815481106122fa57fe5b9060005260206000200154905092915050565b61232883838360405180602001604052806000815250614353565b505050565b61233681614982565b6000601b60008381526020019081526020016000205490506011818154811061235b57fe5b906000526020600020016000905560006013600084815260200190815260200160002060006101000a81548160ff02191690831515021790555060126000828152602001908152602001600020600080820160006123b991906159c4565b6001820160006123c991906159c4565b6002820160006123d991906159c4565b6003820160006123e991906159c4565b6004820160006123f991906159c4565b60058201600061240991906159c4565b60068201600090555050600d6000815480929190600190039190505550600e60008154809291906001900391905055505050565b6000612447612055565b821061249e576040517f08c379a000000000000000000000000000000000000000000000000000000000815260040180806020018281038252602c815260200180615d29602c913960400191505060405180910390fd5b600782815481106124ab57fe5b90600052602060002001549050919050565b3373ffffffffffffffffffffffffffffffffffffffff166016826040518082805190602001908083835b6020831061250a57805182526020820191506020810190506020830392506124e7565b6001836020036101000a038019825116818451168082178552505050505050905001915050908152602001604051809103902060009054906101000a900473ffffffffffffffffffffffffffffffffffffffff1673ffffffffffffffffffffffffffffffffffffffff161461257e57600080fd5b6000601c600086815260200190815260200160002054905061259e615a0c565b601260008381526020019081526020016000206040518060e0016040529081600082018054600181600116156101000203166002900480601f0160208091040260200160405190810160405280929190818152602001828054600181600116156101000203166002900480156126555780601f1061262a57610100808354040283529160200191612655565b820191906000526020600020905b81548152906001019060200180831161263857829003601f168201915b50505050508152602001600182018054600181600116156101000203166002900480601f0160208091040260200160405190810160405280929190818152602001828054600181600116156101000203166002900480156126f75780601f106126cc576101008083540402835291602001916126f7565b820191906000526020600020905b8154815290600101906020018083116126da57829003601f168201915b50505050508152602001600282018054600181600116156101000203166002900480601f0160208091040260200160405190810160405280929190818152602001828054600181600116156101000203166002900480156127995780601f1061276e57610100808354040283529160200191612799565b820191906000526020600020905b81548152906001019060200180831161277c57829003601f168201915b50505050508152602001600382018054600181600116156101000203166002900480601f01602080910402602001604051908101604052809291908181526020018280546001816001161561010002031660029004801561283b5780601f106128105761010080835404028352916020019161283b565b820191906000526020600020905b81548152906001019060200180831161281e57829003601f168201915b50505050508152602001600482018054600181600116156101000203166002900480601f0160208091040260200160405190810160405280929190818152602001828054600181600116156101000203166002900480156128dd5780601f106128b2576101008083540402835291602001916128dd565b820191906000526020600020905b8154815290600101906020018083116128c057829003601f168201915b50505050508152602001600582018054600181600116156101000203166002900480601f01602080910402602001604051908101604052809291908181526020018280546001816001161561010002031660029004801561297f5780601f106129545761010080835404028352916020019161297f565b820191906000526020600020905b81548152906001019060200180831161296257829003601f168201915b505050505081526020016006820154815250509050838160200181905250848160000181905250806012600084815260200190815260200160002060008201518160000190805190602001906129d6929190615a49565b5060208201518160010190805190602001906129f3929190615a49565b506040820151816002019080519060200190612a10929190615a49565b506060820151816003019080519060200190612a2d929190615a49565b506080820151816004019080519060200190612a4a929190615a49565b5060a0820151816005019080519060200190612a67929190615a49565b5060c082015181600601559050507fe7338de2d68a32fe6d074d762d3a25c42a7f6441c0d67399c85999bd652cea5c81600001518260200151836060015184608001518560a001518660c001516040518080602001806020018060200180602001806020018060200188815260200187810387528d818151815260200191508051906020019080838360005b83811015612b0e578082015181840152602081019050612af3565b50505050905090810190601f168015612b3b5780820380516001836020036101000a031916815260200191505b5087810386528c818151815260200191508051906020019080838360005b83811015612b74578082015181840152602081019050612b59565b50505050905090810190601f168015612ba15780820380516001836020036101000a031916815260200191505b50878103855260168152602001807f4e6f7420617661696c61626c6520666f722073616c650000000000000000000081525060200187810384528b818151815260200191508051906020019080838360005b83811015612c0e578082015181840152602081019050612bf3565b50505050905090810190601f168015612c3b5780820380516001836020036101000a031916815260200191505b5087810383528a818151815260200191508051906020019080838360005b83811015612c74578082015181840152602081019050612c59565b50505050905090810190601f168015612ca15780820380516001836020036101000a031916815260200191505b50878103825289818151815260200191508051906020019080838360005b83811015612cda578082015181840152602081019050612cbf565b50505050905090810190601f168015612d075780820380516001836020036101000a031916815260200191505b509c5050505050505050505050505060405180910390a1505050505050565b600f60039054906101000a900473ffffffffffffffffffffffffffffffffffffffff1681565b6000806001600084815260200190815260200160002060009054906101000a900473ffffffffffffffffffffffffffffffffffffffff169050600073ffffffffffffffffffffffffffffffffffffffff168173ffffffffffffffffffffffffffffffffffffffff161415612e0b576040517f08c379a0000000000000000000000000000000000000000000000000000000008152600401808060200182810382526029815260200180615c2a6029913960400191505060405180910390fd5b80915050919050565b6060600b8054600181600116156101000203166002900480601f016020809104026020016040519081016040528092919081815260200182805460018160011615610100020316600290048015612eac5780601f10612e8157610100808354040283529160200191612eac565b820191906000526020600020905b815481529060010190602001808311612e8f57829003601f168201915b5050505050905090565b6017816040518082805190602001908083835b60208310612eec5780518252602082019150602081019050602083039250612ec9565b6001836020036101000a038019825116818451168082178552505050505050905001915050908152602001604051809103902060009054906101000a900473ffffffffffffffffffffffffffffffffffffffff1673ffffffffffffffffffffffffffffffffffffffff163373ffffffffffffffffffffffffffffffffffffffff1614612f7757600080fd5b826016836040518082805190602001908083835b60208310612fae5780518252602082019150602081019050602083039250612f8b565b6001836020036101000a038019825116818451168082178552505050505050905001915050908152602001604051809103902060006101000a81548173ffffffffffffffffffffffffffffffffffffffff021916908373ffffffffffffffffffffffffffffffffffffffff160217905550505050565b60008073ffffffffffffffffffffffffffffffffffffffff168273ffffffffffffffffffffffffffffffffffffffff1614156130ab576040517f08c379a000000000000000000000000000000000000000000000000000000000815260040180806020018281038252602a815260200180615c00602a913960400191505060405180910390fd5b6130f2600360008473ffffffffffffffffffffffffffffffffffffffff1673ffffffffffffffffffffffffffffffffffffffff168152602001908152602001600020614997565b9050919050565b3373ffffffffffffffffffffffffffffffffffffffff166016836040518082805190602001908083835b602083106131465780518252602082019150602081019050602083039250613123565b6001836020036101000a038019825116818451168082178552505050505050905001915050908152602001604051809103902060009054906101000a900473ffffffffffffffffffffffffffffffffffffffff1673ffffffffffffffffffffffffffffffffffffffff16146131ba57600080fd5b6000601c60008581526020019081526020016000205490506131da615a0c565b601260008381526020019081526020016000206040518060e0016040529081600082018054600181600116156101000203166002900480601f0160208091040260200160405190810160405280929190818152602001828054600181600116156101000203166002900480156132915780601f1061326657610100808354040283529160200191613291565b820191906000526020600020905b81548152906001019060200180831161327457829003601f168201915b50505050508152602001600182018054600181600116156101000203166002900480601f0160208091040260200160405190810160405280929190818152602001828054600181600116156101000203166002900480156133335780601f1061330857610100808354040283529160200191613333565b820191906000526020600020905b81548152906001019060200180831161331657829003601f168201915b50505050508152602001600282018054600181600116156101000203166002900480601f0160208091040260200160405190810160405280929190818152602001828054600181600116156101000203166002900480156133d55780601f106133aa576101008083540402835291602001916133d5565b820191906000526020600020905b8154815290600101906020018083116133b857829003601f168201915b50505050508152602001600382018054600181600116156101000203166002900480601f0160208091040260200160405190810160405280929190818152602001828054600181600116156101000203166002900480156134775780601f1061344c57610100808354040283529160200191613477565b820191906000526020600020905b81548152906001019060200180831161345a57829003601f168201915b50505050508152602001600482018054600181600116156101000203166002900480601f0160208091040260200160405190810160405280929190818152602001828054600181600116156101000203166002900480156135195780601f106134ee57610100808354040283529160200191613519565b820191906000526020600020905b8154815290600101906020018083116134fc57829003601f168201915b50505050508152602001600582018054600181600116156101000203166002900480601f0160208091040260200160405190810160405280929190818152602001828054600181600116156101000203166002900480156135bb5780601f10613590576101008083540402835291602001916135bb565b820191906000526020600020905b81548152906001019060200180831161359e57829003601f168201915b50505050508152602001600682015481525050905082816040018190525080601260008481526020019081526020016000206000820151816000019080519060200190613609929190615a49565b506020820151816001019080519060200190613626929190615a49565b506040820151816002019080519060200190613643929190615a49565b506060820151816003019080519060200190613660929190615a49565b50608082015181600401908051906020019061367d929190615a49565b5060a082015181600501908051906020019061369a929190615a49565b5060c082015181600601559050507fe7338de2d68a32fe6d074d762d3a25c42a7f6441c0d67399c85999bd652cea5c816000015182602001518360400151846060015185608001518660a001518760c001516040518080602001806020018060200180602001806020018060200188815260200187810387528e818151815260200191508051906020019080838360005b8381101561374657808201518184015260208101905061372b565b50505050905090810190601f1680156137735780820380516001836020036101000a031916815260200191505b5087810386528d818151815260200191508051906020019080838360005b838110156137ac578082015181840152602081019050613791565b50505050905090810190601f1680156137d95780820380516001836020036101000a031916815260200191505b5087810385528c818151815260200191508051906020019080838360005b838110156138125780820151818401526020810190506137f7565b50505050905090810190601f16801561383f5780820380516001836020036101000a031916815260200191505b5087810384528b818151815260200191508051906020019080838360005b8381101561387857808201518184015260208101905061385d565b50505050905090810190601f1680156138a55780820380516001836020036101000a031916815260200191505b5087810383528a818151815260200191508051906020019080838360005b838110156138de5780820151818401526020810190506138c3565b50505050905090810190601f16801561390b5780820380516001836020036101000a031916815260200191505b50878103825289818151815260200191508051906020019080838360005b83811015613944578082015181840152602081019050613929565b50505050905090810190601f1680156139715780820380516001836020036101000a031916815260200191505b509d505050505050505050505050505060405180910390a15050505050565b6060600a8054600181600116156101000203166002900480601f016020809104026020016040519081016040528092919081815260200182805460018160011615610100020316600290048015613a285780601f106139fd57610100808354040283529160200191613a28565b820191906000526020600020905b815481529060010190602001808311613a0b57829003601f168201915b5050505050905090565b601060009054906101000a900473ffffffffffffffffffffffffffffffffffffffff1673ffffffffffffffffffffffffffffffffffffffff163373ffffffffffffffffffffffffffffffffffffffff1614613a8c57600080fd5b816015826040518082805190602001908083835b60208310613ac35780518252602082019150602081019050602083039250613aa0565b6001836020036101000a038019825116818451168082178552505050505050905001915050908152602001604051809103902060006101000a81548173ffffffffffffffffffffffffffffffffffffffff021916908373ffffffffffffffffffffffffffffffffffffffff1602179055505050565b60136020528060005260406000206000915054906101000a900460ff1681565b6013600087815260200190815260200160002060009054906101000a900460ff16613b8257600080fd5b601060009054906101000a900473ffffffffffffffffffffffffffffffffffffffff1673ffffffffffffffffffffffffffffffffffffffff163373ffffffffffffffffffffffffffffffffffffffff1614613bdc57600080fd5b600e54601c6000888152602001908152602001600020819055506040518060e001604052808681526020018581526020016040518060400160405280601681526020017f4e6f7420617661696c61626c6520666f722073616c650000000000000000000081525081526020018481526020018381526020018281526020018781525060126000600e5481526020019081526020016000206000820151816000019080519060200190613c8f929190615a49565b506020820151816001019080519060200190613cac929190615a49565b506040820151816002019080519060200190613cc9929190615a49565b506060820151816003019080519060200190613ce6929190615a49565b506080820151816004019080519060200190613d03929190615a49565b5060a0820151816005019080519060200190613d20929190615a49565b5060c082015181600601559050507fe7338de2d68a32fe6d074d762d3a25c42a7f6441c0d67399c85999bd652cea5c85858585858b6040518080602001806020018060200180602001806020018060200188815260200187810387528d818151815260200191508051906020019080838360005b83811015613daf578082015181840152602081019050613d94565b50505050905090810190601f168015613ddc5780820380516001836020036101000a031916815260200191505b5087810386528c818151815260200191508051906020019080838360005b83811015613e15578082015181840152602081019050613dfa565b50505050905090810190601f168015613e425780820380516001836020036101000a031916815260200191505b50878103855260168152602001807f4e6f7420617661696c61626c6520666f722073616c650000000000000000000081525060200187810384528b818151815260200191508051906020019080838360005b83811015613eaf578082015181840152602081019050613e94565b50505050905090810190601f168015613edc5780820380516001836020036101000a031916815260200191505b5087810383528a818151815260200191508051906020019080838360005b83811015613f15578082015181840152602081019050613efa565b50505050905090810190601f168015613f425780820380516001836020036101000a031916815260200191505b50878103825289818151815260200191508051906020019080838360005b83811015613f7b578082015181840152602081019050613f60565b50505050905090810190601f168015613fa85780820380516001836020036101000a031916815260200191505b509c5050505050505050505050505060405180910390a1600e60008154809291906001019190505550505050505050565b6013600082815260200190815260200160002060009054906101000a900460ff161561400457600080fd5b600060118290806001815401808255809150509060018203906000526020600020016000909192909190915055905061403d33836149a5565b81601b6000600d5481526020019081526020016000208190555060016013600084815260200190815260200160002060006101000a81548160ff02191690831515021790555060006014600084815260200190815260200160002060006101000a81548160ff02191690831515021790555060006018600084815260200190815260200160002060006101000a81548160ff02191690831515021790555060006019600084815260200190815260200160002060006101000a81548160ff0219169083151502179055506000601a600084815260200190815260200160002060006101000a81548160ff021916908315150217905550600d6000815480929190600101919050555033601d600084815260200190815260200160002060006101000a81548173ffffffffffffffffffffffffffffffffffffffff021916908373ffffffffffffffffffffffffffffffffffffffff1602179055505050565b6141a3614862565b73ffffffffffffffffffffffffffffffffffffffff168273ffffffffffffffffffffffffffffffffffffffff161415614244576040517f08c379a00000000000000000000000000000000000000000000000000000000081526004018080602001828103825260198152602001807f4552433732313a20617070726f766520746f2063616c6c65720000000000000081525060200191505060405180910390fd5b8060046000614251614862565b73ffffffffffffffffffffffffffffffffffffffff1673ffffffffffffffffffffffffffffffffffffffff16815260200190815260200160002060008473ffffffffffffffffffffffffffffffffffffffff1673ffffffffffffffffffffffffffffffffffffffff16815260200190815260200160002060006101000a81548160ff0219169083151502179055508173ffffffffffffffffffffffffffffffffffffffff166142fe614862565b73ffffffffffffffffffffffffffffffffffffffff167f17307eab39ab6107e8899845ad3d59bd9653f200f220920489ca2b5937696c3183604051808215151515815260200191505060405180910390a35050565b61436461435e614862565b8361486a565b6143b9576040517f08c379a0000000000000000000000000000000000000000000000000000000008152600401808060200182810382526031815260200180615cf86031913960400191505060405180910390fd5b6143c5848484846149c6565b50505050565b601181815481106143d857fe5b906000526020600020016000915090505481565b60606143f7826147f0565b61444c576040517f08c379a000000000000000000000000000000000000000000000000000000000815260040180806020018281038252602f815260200180615ca8602f913960400191505060405180910390fd5b6060600c60008481526020019081526020016000208054600181600116156101000203166002900480601f0160208091040260200160405190810160405280929190818152602001828054600181600116156101000203166002900480156144f55780601f106144ca576101008083540402835291602001916144f5565b820191906000526020600020905b8154815290600101906020018083116144d857829003601f168201915b5050505050905060008151141561451e57604051806020016040528060008152509150506145e9565b600b81604051602001808380546001816001161561010002031660029004801561457f5780601f1061455d57610100808354040283529182019161457f565b820191906000526020600020905b81548152906001019060200180831161456b575b505082805190602001908083835b602083106145b0578051825260208201915060208101905060208303925061458d565b6001836020036101000a038019825116818451168082178552505050505050905001925050506040516020818303038152906040529150505b919050565b6000600460008473ffffffffffffffffffffffffffffffffffffffff1673ffffffffffffffffffffffffffffffffffffffff16815260200190815260200160002060008373ffffffffffffffffffffffffffffffffffffffff1673ffffffffffffffffffffffffffffffffffffffff16815260200190815260200160002060009054906101000a900460ff16905092915050565b6015816040518082805190602001908083835b602083106146b85780518252602082019150602081019050602083039250614695565b6001836020036101000a038019825116818451168082178552505050505050905001915050908152602001604051809103902060009054906101000a900473ffffffffffffffffffffffffffffffffffffffff1673ffffffffffffffffffffffffffffffffffffffff163373ffffffffffffffffffffffffffffffffffffffff161461474357600080fd5b826017836040518082805190602001908083835b6020831061477a5780518252602082019150602081019050602083039250614757565b6001836020036101000a038019825116818451168082178552505050505050905001915050908152602001604051809103902060006101000a81548173ffffffffffffffffffffffffffffffffffffffff021916908373ffffffffffffffffffffffffffffffffffffffff160217905550505050565b6000806001600084815260200190815260200160002060009054906101000a900473ffffffffffffffffffffffffffffffffffffffff169050600073ffffffffffffffffffffffffffffffffffffffff168173ffffffffffffffffffffffffffffffffffffffff161415915050919050565b600033905090565b6000614875826147f0565b6148ca576040517f08c379a000000000000000000000000000000000000000000000000000000000815260040180806020018281038252602c815260200180615b9c602c913960400191505060405180910390fd5b60006148d583612d4c565b90508073ffffffffffffffffffffffffffffffffffffffff168473ffffffffffffffffffffffffffffffffffffffff16148061494457508373ffffffffffffffffffffffffffffffffffffffff1661492c846119d5565b73ffffffffffffffffffffffffffffffffffffffff16145b80614955575061495481856145ee565b5b91505092915050565b614969838383614a38565b6149738382614c93565b61497d8282614e31565b505050565b61499461498e82612d4c565b82614ef8565b50565b600081600001549050919050565b6149af8282614f55565b6149b98282614e31565b6149c28161516d565b5050565b6149d184848461495e565b6149dd848484846151b9565b614a32576040517f08c379a0000000000000000000000000000000000000000000000000000000008152600401808060200182810382526032815260200180615b466032913960400191505060405180910390fd5b50505050565b8273ffffffffffffffffffffffffffffffffffffffff16614a5882612d4c565b73ffffffffffffffffffffffffffffffffffffffff1614614ac4576040517f08c379a0000000000000000000000000000000000000000000000000000000008152600401808060200182810382526029815260200180615c7f6029913960400191505060405180910390fd5b600073ffffffffffffffffffffffffffffffffffffffff168273ffffffffffffffffffffffffffffffffffffffff161415614b4a576040517f08c379a0000000000000000000000000000000000000000000000000000000008152600401808060200182810382526024815260200180615b786024913960400191505060405180910390fd5b614b53816154f5565b614b9a600360008573ffffffffffffffffffffffffffffffffffffffff1673ffffffffffffffffffffffffffffffffffffffff1681526020019081526020016000206155b3565b614be1600360008473ffffffffffffffffffffffffffffffffffffffff1673ffffffffffffffffffffffffffffffffffffffff1681526020019081526020016000206155d6565b816001600083815260200190815260200160002060006101000a81548173ffffffffffffffffffffffffffffffffffffffff021916908373ffffffffffffffffffffffffffffffffffffffff160217905550808273ffffffffffffffffffffffffffffffffffffffff168473ffffffffffffffffffffffffffffffffffffffff167fddf252ad1be2c89b69c2b068fc378daa952ba7f163c4a11628f55a4df523b3ef60405160405180910390a4505050565b6000614ceb6001600560008673ffffffffffffffffffffffffffffffffffffffff1673ffffffffffffffffffffffffffffffffffffffff168152602001908152602001600020805490506155ec90919063ffffffff16565b9050600060066000848152602001908152602001600020549050818114614dd8576000600560008673ffffffffffffffffffffffffffffffffffffffff1673ffffffffffffffffffffffffffffffffffffffff1681526020019081526020016000208381548110614d5857fe5b9060005260206000200154905080600560008773ffffffffffffffffffffffffffffffffffffffff1673ffffffffffffffffffffffffffffffffffffffff1681526020019081526020016000208381548110614db057fe5b9060005260206000200181905550816006600083815260200190815260200160002081905550505b600560008573ffffffffffffffffffffffffffffffffffffffff1673ffffffffffffffffffffffffffffffffffffffff168152602001908152602001600020805480919060019003614e2a9190615ac9565b5050505050565b600560008373ffffffffffffffffffffffffffffffffffffffff1673ffffffffffffffffffffffffffffffffffffffff168152602001908152602001600020805490506006600083815260200190815260200160002081905550600560008373ffffffffffffffffffffffffffffffffffffffff1673ffffffffffffffffffffffffffffffffffffffff1681526020019081526020016000208190806001815401808255809150509060018203906000526020600020016000909192909190915055505050565b614f028282615636565b6000600c600083815260200190815260200160002080546001816001161561010002031660029004905014614f5157600c60008281526020019081526020016000206000614f5091906159c4565b5b5050565b600073ffffffffffffffffffffffffffffffffffffffff168273ffffffffffffffffffffffffffffffffffffffff161415614ff8576040517f08c379a00000000000000000000000000000000000000000000000000000000081526004018080602001828103825260208152602001807f4552433732313a206d696e7420746f20746865207a65726f206164647265737381525060200191505060405180910390fd5b615001816147f0565b15615074576040517f08c379a000000000000000000000000000000000000000000000000000000000815260040180806020018281038252601c8152602001807f4552433732313a20746f6b656e20616c7265616479206d696e7465640000000081525060200191505060405180910390fd5b816001600083815260200190815260200160002060006101000a81548173ffffffffffffffffffffffffffffffffffffffff021916908373ffffffffffffffffffffffffffffffffffffffff16021790555061510d600360008473ffffffffffffffffffffffffffffffffffffffff1673ffffffffffffffffffffffffffffffffffffffff1681526020019081526020016000206155d6565b808273ffffffffffffffffffffffffffffffffffffffff16600073ffffffffffffffffffffffffffffffffffffffff167fddf252ad1be2c89b69c2b068fc378daa952ba7f163c4a11628f55a4df523b3ef60405160405180910390a45050565b6007805490506008600083815260200190815260200160002081905550600781908060018154018082558091505090600182039060005260206000200160009091929091909150555050565b60006151da8473ffffffffffffffffffffffffffffffffffffffff16615670565b6151e757600190506154ed565b600060608573ffffffffffffffffffffffffffffffffffffffff168673ffffffffffffffffffffffffffffffffffffffff1663150b7a02905060e01b61522b614862565b898888604051602401808573ffffffffffffffffffffffffffffffffffffffff1673ffffffffffffffffffffffffffffffffffffffff1681526020018473ffffffffffffffffffffffffffffffffffffffff1673ffffffffffffffffffffffffffffffffffffffff16815260200183815260200180602001828103825283818151815260200191508051906020019080838360005b838110156152db5780820151818401526020810190506152c0565b50505050905090810190601f1680156153085780820380516001836020036101000a031916815260200191505b5095505050505050604051602081830303815290604052907bffffffffffffffffffffffffffffffffffffffffffffffffffffffff19166020820180517bffffffffffffffffffffffffffffffffffffffffffffffffffffffff83818316178352505050506040518082805190602001908083835b602083106153a0578051825260208201915060208101905060208303925061537d565b6001836020036101000a0380198251168184511680821785525050505050509050019150506000604051808303816000865af19150503d8060008114615402576040519150601f19603f3d011682016040523d82523d6000602084013e615407565b606091505b509150915081615475576000815111156154245780518082602001fd5b6040517f08c379a0000000000000000000000000000000000000000000000000000000008152600401808060200182810382526032815260200180615b466032913960400191505060405180910390fd5b600081806020019051602081101561548c57600080fd5b8101908080519060200190929190505050905063150b7a0260e01b7bffffffffffffffffffffffffffffffffffffffffffffffffffffffff1916817bffffffffffffffffffffffffffffffffffffffffffffffffffffffff19161493505050505b949350505050565b600073ffffffffffffffffffffffffffffffffffffffff166002600083815260200190815260200160002060009054906101000a900473ffffffffffffffffffffffffffffffffffffffff1673ffffffffffffffffffffffffffffffffffffffff16146155b05760006002600083815260200190815260200160002060006101000a81548173ffffffffffffffffffffffffffffffffffffffff021916908373ffffffffffffffffffffffffffffffffffffffff1602179055505b50565b6155cb600182600001546155ec90919063ffffffff16565b816000018190555050565b6001816000016000828254019250508190555050565b600061562e83836040518060400160405280601e81526020017f536166654d6174683a207375627472616374696f6e206f766572666c6f7700008152506156bb565b905092915050565b615640828261577b565b61564a8282614c93565b6000600660008381526020019081526020016000208190555061566c8161590a565b5050565b60008060007fc5d2460186f7233c927e7db2dcc703c0e500b653ca82273b7bfad8045d85a47060001b9050833f91508082141580156156b257506000801b8214155b92505050919050565b6000838311158290615768576040517f08c379a00000000000000000000000000000000000000000000000000000000081526004018080602001828103825283818151815260200191508051906020019080838360005b8381101561572d578082015181840152602081019050615712565b50505050905090810190601f16801561575a5780820380516001836020036101000a031916815260200191505b509250505060405180910390fd5b5060008385039050809150509392505050565b8173ffffffffffffffffffffffffffffffffffffffff1661579b82612d4c565b73ffffffffffffffffffffffffffffffffffffffff1614615807576040517f08c379a0000000000000000000000000000000000000000000000000000000008152600401808060200182810382526025815260200180615d556025913960400191505060405180910390fd5b615810816154f5565b615857600360008473ffffffffffffffffffffffffffffffffffffffff1673ffffffffffffffffffffffffffffffffffffffff1681526020019081526020016000206155b3565b60006001600083815260200190815260200160002060006101000a81548173ffffffffffffffffffffffffffffffffffffffff021916908373ffffffffffffffffffffffffffffffffffffffff16021790555080600073ffffffffffffffffffffffffffffffffffffffff168373ffffffffffffffffffffffffffffffffffffffff167fddf252ad1be2c89b69c2b068fc378daa952ba7f163c4a11628f55a4df523b3ef60405160405180910390a45050565b600061592560016007805490506155ec90919063ffffffff16565b905060006008600084815260200190815260200160002054905060006007838154811061594e57fe5b90600052602060002001549050806007838154811061596957fe5b906000526020600020018190555081600860008381526020019081526020016000208190555060078054809190600190036159a49190615ac9565b506000600860008681526020019081526020016000208190555050505050565b50805460018160011615610100020316600290046000825580601f106159ea5750615a09565b601f016020900490600052602060002090810190615a089190615af5565b5b50565b6040518060e00160405280606081526020016060815260200160608152602001606081526020016060815260200160608152602001600081525090565b828054600181600116156101000203166002900490600052602060002090601f016020900481019282601f10615a8a57805160ff1916838001178555615ab8565b82800160010185558215615ab8579182015b82811115615ab7578251825591602001919060010190615a9c565b5b509050615ac59190615af5565b5090565b815481835581811115615af057818360005260206000209182019101615aef9190615af5565b5b505050565b615b1791905b80821115615b13576000816000905550600101615afb565b5090565b9056fe455243373231456e756d657261626c653a206f776e657220696e646578206f7574206f6620626f756e64734552433732313a207472616e7366657220746f206e6f6e20455243373231526563656976657220696d706c656d656e7465724552433732313a207472616e7366657220746f20746865207a65726f20616464726573734552433732313a206f70657261746f7220717565727920666f72206e6f6e6578697374656e7420746f6b656e4552433732313a20617070726f76652063616c6c6572206973206e6f74206f776e6572206e6f7220617070726f76656420666f7220616c6c4552433732313a2062616c616e636520717565727920666f7220746865207a65726f20616464726573734552433732313a206f776e657220717565727920666f72206e6f6e6578697374656e7420746f6b656e4552433732313a20617070726f76656420717565727920666f72206e6f6e6578697374656e7420746f6b656e4552433732313a207472616e73666572206f6620746f6b656e2074686174206973206e6f74206f776e4552433732314d657461646174613a2055524920717565727920666f72206e6f6e6578697374656e7420746f6b656e4552433732313a20617070726f76616c20746f2063757272656e74206f776e65724552433732313a207472616e736665722063616c6c6572206973206e6f74206f776e6572206e6f7220617070726f766564455243373231456e756d657261626c653a20676c6f62616c20696e646578206f7574206f6620626f756e64734552433732313a206275726e206f6620746f6b656e2074686174206973206e6f74206f776ea165627a7a723058204d9899a8f5ad265ce7f4a0945089fd01c8d4bf6af0de5a9b043f31ba7732c24a0029",
  "source": "pragma solidity 0.5.8;\r\n\r\nimport \"@openzeppelin/contracts/token/ERC721/ERC721Full.sol\";\r\n//import \"@openzeppelin/contracts/token/ERC721/ERC721Burnable.sol\";\r\ncontract Land is ERC721Full/*,ERC721Burnable*/ {\r\n\r\n\r\n uint public postCount = 1;\r\n uint public count = 1;\r\n      bool dwater;\r\n      bool dbank;\r\n      bool delec;\r\n   address public electricity=0x48E93E9ad94ea0AAd209aBe5BC879040447aCE98;    \r\n   address public gov=0x917937a261789cf3380021944A1464Fa38586f0e;\r\n\r\n   \r\n    constructor() ERC721Full(\"landno\",\"Land\") public {\r\n\r\n     dwater=false;\r\n     dbank=false;\r\n     delec=false;\r\n        \r\n        }\r\n    \r\n     uint[] public landno;  //for storing land\r\n\r\n\r\n  mapping(uint => Citizen) public posts;\r\n   mapping(uint => bool) public landminted; // for checking the minting staus of land(minted or not)\r\n    mapping (uint => bool) services;\r\n     mapping(string => address) stateAdmin;\r\n      mapping(string => address) villageAdmin;\r\n       mapping(string => address) dist;\r\n   //  mapping (uint => bool) availables;\r\n        mapping (uint=> bool) waterrs;\r\n         mapping (uint => bool) eleccs;\r\n          mapping (uint => bool) loanns;\r\n           mapping (uint => uint) map;\r\n            mapping (uint => uint) mapt;\r\n            \r\n    \r\n    mapping(uint => address) private landOwner;\r\n //   mapping(string => address) private adhaarno;\r\n\r\n //mapping citizen to his land\r\n  //  mapping(address => Citizen) citizens;\r\n   // address[] public citizendetail;\r\n\r\n\r\n    \r\n    struct Citizen {\r\n        \r\n        string adhaarno;\r\n        string fname;\r\n        string initiatedwith;\r\n        \r\n        string state;\r\n        string district;\r\n      //  string taluka;\r\n        string village;\r\n        uint tokenid;\r\n        /*bool water;\r\n        bool bank;\r\n        bool elec;\r\n       */\r\n        \r\n    }\r\n    \r\n    //assigning admins for state and village\r\n function villageadmin(address villagea,string memory village,string memory district)  public {\r\n  require(msg.sender==dist[district]);\r\n\r\n        villageAdmin[village]=villagea;\r\n    }\r\n     function stateadmin(address statea,string memory state )  public {\r\n      require(msg.sender==gov);\r\n\r\n        stateAdmin[state]=statea;\r\n    }\r\n    function distadmin(address dista,string memory district ,string memory state)  public {\r\n      require(msg.sender==stateAdmin[state]);\r\n        dist[district]=dista;\r\n    }\r\n      \r\n  /* function wateradmin(bool valid) public {\r\n\r\nrequire(msg.sender==electricity);\r\n    \r\n    if(valid)\r\n    {\r\n      dwater =true;\r\n    }\r\n    else\r\n    {\r\n      dwater =false;\r\n\r\n    }\r\n\r\n\r\n   }\r\n\r\n function elecadmin(bool valid) public {\r\n\r\nrequire(msg.sender==electricity);\r\n\r\n   \r\n    if(valid)\r\n    {\r\n      delec =true;\r\n\r\n\r\n    }\r\n    else\r\n    {\r\n      delec =false;\r\n    }\r\n\r\n\r\n   }\r\n\r\n function bankadmin(bool valid) public {\r\n\r\nrequire(msg.sender==electricity);\r\n\r\n   \r\n    if(valid)\r\n    {\r\n      dbank =true;\r\n\r\n    }\r\n    else\r\n    {\r\n      dbank =false;\r\n    }\r\n\r\n\r\n   }\r\n*/\r\n    function changeadmin(address govern) public {\r\n\r\nrequire(msg.sender==gov && dwater && delec && dbank);\r\n   \r\n    gov = govern;\r\n\r\n\r\n\r\n   }\r\n     \r\nevent PostCreated(\r\n        string adhaarno,\r\n        string fname,\r\n         string initiatedwith,\r\n        \r\n        string state,\r\n       \r\n        string district,\r\n         string village,\r\n       // string taluka,\r\n        uint tokenid\r\n        /*bool water,\r\n        bool bank,\r\n        bool elec*/\r\n       \r\n       \r\n      \r\n\r\n         );\r\n\r\n\r\n\r\n   \r\n\r\n\r\n\r\n\r\n//To get the Details of land owner\r\n/*\r\nfunction getcitizen(address add) view public returns(string memory,string memory,string memory)\r\n{\r\n    return (citizens[add].adhaarno,citizens[add].fname,citizens[add].lname);\r\n}\r\n\r\n\r\n\r\n*/\r\n\r\n// Task of government\r\n\r\nfunction mint(uint mland) public {\r\n\r\n   \r\n   require (!landminted[mland]);  //land should not be minted previously\r\n //  require (msg.sender==gov,\"only government can mint\" /* && dwater && delec && dbank*/);\r\n   uint no = landno.push(mland); // adds land to the array of minted land\r\n   _mint(msg.sender,mland);   \r\n   map[postCount]=mland;     //assign land ro the sender of function\r\n    landminted[mland]=true; \r\n\r\n    services[mland]=false;\r\n   //checkvalues[mland]=false;\r\n\r\n     waterrs[mland]=false;\r\n    eleccs[mland]=false;\r\n    loanns[mland]=false;\r\n     postCount++;\r\n\r\n    landOwner[mland]=msg.sender;    // assigns true value so that it cannot be minted again\r\n    \r\n}\r\n     \r\nfunction burn(uint256 tokenId) public{\r\n   _burn(tokenId);\r\n   uint a=map[tokenId];\r\n   delete landno[a];\r\n   landminted[tokenId]= false;\r\n   delete posts[a];\r\n   postCount--;\r\n  // delete posts[a];\r\n  count--;\r\n  }\r\n\r\n//Government assigning land to their particular owner based on their adhaar card\r\n\r\n\r\nfunction govtransfer( uint  tokenId,string memory no,string memory name,string  memory state,string  memory district,string  memory village) public{\r\nrequire (landminted[tokenId]);\r\nrequire (msg.sender==gov/*  && dwater && delec && dbank*/ );\r\n//require (services[tokenId]);\r\n\r\n\r\n\r\n//adhaarno[madhaar]=to;\r\n //Citizen storage citizen = citizens[to];\r\n\r\n mapt[tokenId]=count;\r\n\r\n  //  citizendetail.push(to) -1;\r\n    posts[count] =  Citizen(no,name,\"Not available for sale\",state,district,village,tokenId);\r\n emit PostCreated(no,name,\"Not available for sale\",state,district,village,tokenId);\r\n count++;\r\n\r\n}\r\n\r\n\r\n\r\n\r\n/* function owner(uint  tokenId,string memory madhaar) public view returns(address)   {\r\n \r\n        address owner1 = landOwner[tokenId];\r\n       // address ownera =adhaarno[madhaar];\r\n      //  require(owner1 != address(0), \"ERC721: owner query for nonexistent token\");\r\n      //  require (ownera==owner);\r\n        return owner1;\r\n    }\r\n\r\n*/\r\n    // this function will transfer the land frond one owner to the another\r\n   \r\n\r\n\r\n\r\n    //conformation of all services\r\n   \r\n   \r\n   \r\n\r\n/* function isavailable(uint  tokenId,bool valid)  public{\r\n   \r\n\r\n   require (msg.sender==owner(tokenId));\r\n// Citizen memory _post = posts[tokenId];\r\n          \r\n     \r\n          \r\n            \r\n         if(valid)\r\n          {\r\n      \r\n           availables[tokenId] = true;\r\n            posts[tokenId].avail=true;\r\n       }\r\n       else\r\n       {\r\n       availables[tokenId] = false;\r\n     posts[tokenId].avail=false;\r\n       }\r\n      \r\n       \r\n      \r\n         \r\n    }\r\n     \r\n       \r\n  */  \r\n    \r\n        \r\n /*     \r\n     function waterbill(uint tokenId,bool valid) public\r\n   {\r\n            require (msg.sender==electricity);\r\n     //  Citizen memory _post = posts[tokenId];\r\n           \r\n       \r\n         if(valid)\r\n          {\r\n      \r\n             waterrs[tokenId] = true;\r\n             posts[tokenId].water=true;\r\n       }\r\n       else\r\n       {\r\n       waterrs[tokenId] = false;\r\n        posts[tokenId].water=false;\r\n       }\r\n      \r\n       \r\n    }\r\n    \r\n     function electric(uint  tokenId,bool valid) \r\n    public\r\n   {\r\n          require (msg.sender==electricity);\r\n       \r\n            //  Citizen memory _post = posts[tokenId];\r\n       \r\n         if(valid)\r\n          {\r\n      \r\n            eleccs[tokenId] = true;\r\n             posts[tokenId].elec=true;\r\n       }\r\n       else\r\n       {\r\n       eleccs[tokenId] = false;\r\n        posts[tokenId].elec=false;\r\n       }\r\n      \r\n    }\r\n    \r\n     function loan(uint  tokenId,bool valid)  public\r\n    {\r\n          require (msg.sender==electricity);\r\n         //Citizen memory _post = posts[tokenId];\r\n      \r\n           \r\n         if(valid)\r\n          {\r\n      \r\n             loanns[tokenId] = true;\r\n             posts[tokenId].bank=true;\r\n       }\r\n       else\r\n       {\r\n        loanns[tokenId] = false;\r\n         posts[tokenId].bank=false;\r\n       }\r\n      \r\n\r\n    }\r\n     \r\n*/\r\n\r\n\r\nfunction initiatelandtransfer(uint tokenId,string memory village,string memory adhaarbuy) public {\r\n  \r\n        require(villageAdmin[village] == msg.sender );\r\n\r\nuint a =mapt[tokenId];\r\n Citizen memory _post = posts[a];\r\n         \r\n          _post.initiatedwith=adhaarbuy;\r\n          \r\n\r\n          posts[a]=_post;\r\n \r\n         emit PostCreated(_post.adhaarno,_post.fname, _post.initiatedwith, _post.state, _post.district , _post.village,_post.tokenid);\r\n\r\n}\r\n\r\n\r\n     function transfer(uint tokenId,string memory no,string memory fname,string memory village) public {\r\n\r\n        require(villageAdmin[village] == msg.sender );\r\n\r\n      //require (services[tokenId]);\r\n        \r\n       uint a =mapt[tokenId];\r\n          Citizen memory _post = posts[a];\r\n           _post.fname=fname;\r\n          //  _post.lname=lname;\r\n             _post.adhaarno=no;\r\n           \r\n            \r\n\r\n          posts[a]=_post;\r\n //services[tokenId]=false;\r\n   //checkvalues[mland]=false;\r\n  //  availables[tokenId]=false;\r\n //   waterrs[tokenId]=false;\r\n  //  eleccs[tokenId]=false;\r\n  //  loanns[tokenId]=false;\r\n         emit PostCreated(_post.adhaarno,_post.fname,\"Not available for sale\", _post.state, _post.district ,_post.village,_post.tokenid);\r\n    \r\n}\r\n\r\nfunction change(address changee) public {\r\n\r\n require (msg.sender==0x39E79820B097E5c72AF6698D76f8829F2ae38496);\r\n\r\n\r\nelectricity = changee;\r\n  \r\n}\r\n\r\n\r\n\r\n\r\n}",
  "sourcePath": "C:/sih/DS157_Sangeeks/contracts/Land.sol",
  "compiler": {
    "name": "solc",
    "version": "0.5.8+commit.23d335f2.Emscripten.clang"
  },
  "schemaVersion": "3.0.15",
  "updatedAt": "2020-08-02T11:36:32.374Z",
  "devdoc": {
    "methods": {
      "approve(address,uint256)": {
        "details": "Approves another address to transfer the given token ID The zero address indicates there is no approved address. There can only be one approved address per token at a given time. Can only be called by the token owner or an approved operator.",
        "params": {
          "to": "address to be approved for the given token ID",
          "tokenId": "uint256 ID of the token to be approved"
        }
      },
      "balanceOf(address)": {
        "details": "Gets the balance of the specified address.",
        "params": {
          "owner": "address to query the balance of"
        },
        "return": "uint256 representing the amount owned by the passed address"
      },
      "baseURI()": {
        "details": "Returns the base URI set via {_setBaseURI}. This will be automatically added as a preffix in {tokenURI} to each token's URI, when they are non-empty.    * _Available since v2.5.0._"
      },
      "getApproved(uint256)": {
        "details": "Gets the approved address for a token ID, or zero if no address set Reverts if the token ID does not exist.",
        "params": {
          "tokenId": "uint256 ID of the token to query the approval of"
        },
        "return": "address currently approved for the given token ID"
      },
      "isApprovedForAll(address,address)": {
        "details": "Tells whether an operator is approved by a given owner.",
        "params": {
          "operator": "operator address which you want to query the approval of",
          "owner": "owner address which you want to query the approval of"
        },
        "return": "bool whether the given operator is approved by the given owner"
      },
      "name()": {
        "details": "Gets the token name.",
        "return": "string representing the token name"
      },
      "ownerOf(uint256)": {
        "details": "Gets the owner of the specified token ID.",
        "params": {
          "tokenId": "uint256 ID of the token to query the owner of"
        },
        "return": "address currently marked as the owner of the given token ID"
      },
      "safeTransferFrom(address,address,uint256)": {
        "details": "Safely transfers the ownership of a given token ID to another address If the target address is a contract, it must implement {IERC721Receiver-onERC721Received}, which is called upon a safe transfer, and return the magic value `bytes4(keccak256(\"onERC721Received(address,address,uint256,bytes)\"))`; otherwise, the transfer is reverted. Requires the msg.sender to be the owner, approved, or operator",
        "params": {
          "from": "current owner of the token",
          "to": "address to receive the ownership of the given token ID",
          "tokenId": "uint256 ID of the token to be transferred"
        }
      },
      "safeTransferFrom(address,address,uint256,bytes)": {
        "details": "Safely transfers the ownership of a given token ID to another address If the target address is a contract, it must implement {IERC721Receiver-onERC721Received}, which is called upon a safe transfer, and return the magic value `bytes4(keccak256(\"onERC721Received(address,address,uint256,bytes)\"))`; otherwise, the transfer is reverted. Requires the _msgSender() to be the owner, approved, or operator",
        "params": {
          "_data": "bytes data to send along with a safe transfer check",
          "from": "current owner of the token",
          "to": "address to receive the ownership of the given token ID",
          "tokenId": "uint256 ID of the token to be transferred"
        }
      },
      "setApprovalForAll(address,bool)": {
        "details": "Sets or unsets the approval of a given operator An operator is allowed to transfer all tokens of the sender on their behalf.",
        "params": {
          "approved": "representing the status of the approval to be set",
          "to": "operator address to set the approval"
        }
      },
      "supportsInterface(bytes4)": {
        "details": "See {IERC165-supportsInterface}.     * Time complexity O(1), guaranteed to always use less than 30 000 gas."
      },
      "symbol()": {
        "details": "Gets the token symbol.",
        "return": "string representing the token symbol"
      },
      "tokenByIndex(uint256)": {
        "details": "Gets the token ID at a given index of all the tokens in this contract Reverts if the index is greater or equal to the total number of tokens.",
        "params": {
          "index": "uint256 representing the index to be accessed of the tokens list"
        },
        "return": "uint256 token ID at the given index of the tokens list"
      },
      "tokenOfOwnerByIndex(address,uint256)": {
        "details": "Gets the token ID at a given index of the tokens list of the requested owner.",
        "params": {
          "index": "uint256 representing the index to be accessed of the requested tokens list",
          "owner": "address owning the tokens list to be accessed"
        },
        "return": "uint256 token ID at the given index of the tokens list owned by the requested address"
      },
      "tokenURI(uint256)": {
        "details": "Returns the URI for a given token ID. May return an empty string.     * If the token's URI is non-empty and a base URI was set (via {_setBaseURI}), it will be added to the token ID's URI as a prefix.     * Reverts if the token ID does not exist."
      },
      "totalSupply()": {
        "details": "Gets the total amount of tokens stored by the contract.",
        "return": "uint256 representing the total amount of tokens"
      },
      "transferFrom(address,address,uint256)": {
        "details": "Transfers the ownership of a given token ID to another address. Usage of this method is discouraged, use {safeTransferFrom} whenever possible. Requires the msg.sender to be the owner, approved, or operator.",
        "params": {
          "from": "current owner of the token",
          "to": "address to receive the ownership of the given token ID",
          "tokenId": "uint256 ID of the token to be transferred"
        }
      }
    }
  },
  "userdoc": {
    "methods": {}
  }
}