{
  "contractName": "Land",
  "abi": [
    {
      "constant": true,
      "inputs": [
        {
          "name": "interfaceId",
          "type": "bytes4"
        }
      ],
      "name": "supportsInterface",
      "outputs": [
        {
          "name": "",
          "type": "bool"
        }
      ],
      "payable": false,
      "stateMutability": "view",
      "type": "function"
    },
    {
      "constant": true,
      "inputs": [],
      "name": "name",
      "outputs": [
        {
          "name": "",
          "type": "string"
        }
      ],
      "payable": false,
      "stateMutability": "view",
      "type": "function"
    },
    {
      "constant": true,
      "inputs": [
        {
          "name": "tokenId",
          "type": "uint256"
        }
      ],
      "name": "getApproved",
      "outputs": [
        {
          "name": "",
          "type": "address"
        }
      ],
      "payable": false,
      "stateMutability": "view",
      "type": "function"
    },
    {
      "constant": false,
      "inputs": [
        {
          "name": "to",
          "type": "address"
        },
        {
          "name": "tokenId",
          "type": "uint256"
        }
      ],
      "name": "approve",
      "outputs": [],
      "payable": false,
      "stateMutability": "nonpayable",
      "type": "function"
    },
    {
      "constant": true,
      "inputs": [
        {
          "name": "",
          "type": "uint256"
        }
      ],
      "name": "posts",
      "outputs": [
        {
          "name": "adhaarno",
          "type": "string"
        },
        {
          "name": "fname",
          "type": "string"
        },
        {
          "name": "lname",
          "type": "string"
        },
        {
          "name": "tokenid",
          "type": "uint256"
        },
        {
          "name": "owner",
          "type": "address"
        },
        {
          "name": "water",
          "type": "bool"
        },
        {
          "name": "bank",
          "type": "bool"
        },
        {
          "name": "elec",
          "type": "bool"
        },
        {
          "name": "avail",
          "type": "bool"
        }
      ],
      "payable": false,
      "stateMutability": "view",
      "type": "function"
    },
    {
      "constant": true,
      "inputs": [],
      "name": "postCount",
      "outputs": [
        {
          "name": "",
          "type": "uint256"
        }
      ],
      "payable": false,
      "stateMutability": "view",
      "type": "function"
    },
    {
      "constant": true,
      "inputs": [],
      "name": "totalSupply",
      "outputs": [
        {
          "name": "",
          "type": "uint256"
        }
      ],
      "payable": false,
      "stateMutability": "view",
      "type": "function"
    },
    {
      "constant": false,
      "inputs": [
        {
          "name": "from",
          "type": "address"
        },
        {
          "name": "to",
          "type": "address"
        },
        {
          "name": "tokenId",
          "type": "uint256"
        }
      ],
      "name": "transferFrom",
      "outputs": [],
      "payable": false,
      "stateMutability": "nonpayable",
      "type": "function"
    },
    {
      "constant": true,
      "inputs": [
        {
          "name": "owner",
          "type": "address"
        },
        {
          "name": "index",
          "type": "uint256"
        }
      ],
      "name": "tokenOfOwnerByIndex",
      "outputs": [
        {
          "name": "",
          "type": "uint256"
        }
      ],
      "payable": false,
      "stateMutability": "view",
      "type": "function"
    },
    {
      "constant": false,
      "inputs": [
        {
          "name": "from",
          "type": "address"
        },
        {
          "name": "to",
          "type": "address"
        },
        {
          "name": "tokenId",
          "type": "uint256"
        }
      ],
      "name": "safeTransferFrom",
      "outputs": [],
      "payable": false,
      "stateMutability": "nonpayable",
      "type": "function"
    },
    {
      "constant": true,
      "inputs": [
        {
          "name": "index",
          "type": "uint256"
        }
      ],
      "name": "tokenByIndex",
      "outputs": [
        {
          "name": "",
          "type": "uint256"
        }
      ],
      "payable": false,
      "stateMutability": "view",
      "type": "function"
    },
    {
      "constant": true,
      "inputs": [
        {
          "name": "tokenId",
          "type": "uint256"
        }
      ],
      "name": "ownerOf",
      "outputs": [
        {
          "name": "",
          "type": "address"
        }
      ],
      "payable": false,
      "stateMutability": "view",
      "type": "function"
    },
    {
      "constant": true,
      "inputs": [],
      "name": "baseURI",
      "outputs": [
        {
          "name": "",
          "type": "string"
        }
      ],
      "payable": false,
      "stateMutability": "view",
      "type": "function"
    },
    {
      "constant": true,
      "inputs": [
        {
          "name": "owner",
          "type": "address"
        }
      ],
      "name": "balanceOf",
      "outputs": [
        {
          "name": "",
          "type": "uint256"
        }
      ],
      "payable": false,
      "stateMutability": "view",
      "type": "function"
    },
    {
      "constant": true,
      "inputs": [],
      "name": "aa",
      "outputs": [
        {
          "name": "",
          "type": "uint256"
        }
      ],
      "payable": false,
      "stateMutability": "view",
      "type": "function"
    },
    {
      "constant": true,
      "inputs": [],
      "name": "symbol",
      "outputs": [
        {
          "name": "",
          "type": "string"
        }
      ],
      "payable": false,
      "stateMutability": "view",
      "type": "function"
    },
    {
      "constant": false,
      "inputs": [
        {
          "name": "to",
          "type": "address"
        },
        {
          "name": "approved",
          "type": "bool"
        }
      ],
      "name": "setApprovalForAll",
      "outputs": [],
      "payable": false,
      "stateMutability": "nonpayable",
      "type": "function"
    },
    {
      "constant": false,
      "inputs": [
        {
          "name": "from",
          "type": "address"
        },
        {
          "name": "to",
          "type": "address"
        },
        {
          "name": "tokenId",
          "type": "uint256"
        },
        {
          "name": "_data",
          "type": "bytes"
        }
      ],
      "name": "safeTransferFrom",
      "outputs": [],
      "payable": false,
      "stateMutability": "nonpayable",
      "type": "function"
    },
    {
      "constant": true,
      "inputs": [
        {
          "name": "",
          "type": "uint256"
        }
      ],
      "name": "landno",
      "outputs": [
        {
          "name": "",
          "type": "uint256"
        }
      ],
      "payable": false,
      "stateMutability": "view",
      "type": "function"
    },
    {
      "constant": true,
      "inputs": [
        {
          "name": "tokenId",
          "type": "uint256"
        }
      ],
      "name": "tokenURI",
      "outputs": [
        {
          "name": "",
          "type": "string"
        }
      ],
      "payable": false,
      "stateMutability": "view",
      "type": "function"
    },
    {
      "constant": true,
      "inputs": [
        {
          "name": "owner",
          "type": "address"
        },
        {
          "name": "operator",
          "type": "address"
        }
      ],
      "name": "isApprovedForAll",
      "outputs": [
        {
          "name": "",
          "type": "bool"
        }
      ],
      "payable": false,
      "stateMutability": "view",
      "type": "function"
    },
    {
      "inputs": [],
      "payable": false,
      "stateMutability": "nonpayable",
      "type": "constructor"
    },
    {
      "anonymous": false,
      "inputs": [
        {
          "indexed": false,
          "name": "adhaarno",
          "type": "string"
        },
        {
          "indexed": false,
          "name": "fname",
          "type": "string"
        },
        {
          "indexed": false,
          "name": "lname",
          "type": "string"
        },
        {
          "indexed": false,
          "name": "tokenid",
          "type": "uint256"
        },
        {
          "indexed": false,
          "name": "owner",
          "type": "address"
        },
        {
          "indexed": false,
          "name": "water",
          "type": "bool"
        },
        {
          "indexed": false,
          "name": "bank",
          "type": "bool"
        },
        {
          "indexed": false,
          "name": "elec",
          "type": "bool"
        },
        {
          "indexed": false,
          "name": "avail",
          "type": "bool"
        }
      ],
      "name": "PostCreated",
      "type": "event"
    },
    {
      "anonymous": false,
      "inputs": [
        {
          "indexed": true,
          "name": "from",
          "type": "address"
        },
        {
          "indexed": true,
          "name": "to",
          "type": "address"
        },
        {
          "indexed": true,
          "name": "tokenId",
          "type": "uint256"
        }
      ],
      "name": "Transfer",
      "type": "event"
    },
    {
      "anonymous": false,
      "inputs": [
        {
          "indexed": true,
          "name": "owner",
          "type": "address"
        },
        {
          "indexed": true,
          "name": "approved",
          "type": "address"
        },
        {
          "indexed": true,
          "name": "tokenId",
          "type": "uint256"
        }
      ],
      "name": "Approval",
      "type": "event"
    },
    {
      "anonymous": false,
      "inputs": [
        {
          "indexed": true,
          "name": "owner",
          "type": "address"
        },
        {
          "indexed": true,
          "name": "operator",
          "type": "address"
        },
        {
          "indexed": false,
          "name": "approved",
          "type": "bool"
        }
      ],
      "name": "ApprovalForAll",
      "type": "event"
    },
    {
      "constant": false,
      "inputs": [
        {
          "name": "mland",
          "type": "uint256"
        }
      ],
      "name": "mint",
      "outputs": [],
      "payable": false,
      "stateMutability": "nonpayable",
      "type": "function"
    },
    {
      "constant": false,
      "inputs": [
        {
          "name": "to",
          "type": "address"
        },
        {
          "name": "tokenId",
          "type": "uint256"
        },
        {
          "name": "no",
          "type": "string"
        },
        {
          "name": "name",
          "type": "string"
        },
        {
          "name": "lnamee",
          "type": "string"
        }
      ],
      "name": "govtransfer",
      "outputs": [],
      "payable": false,
      "stateMutability": "nonpayable",
      "type": "function"
    },
    {
      "constant": true,
      "inputs": [
        {
          "name": "tokenId",
          "type": "uint256"
        }
      ],
      "name": "owner",
      "outputs": [
        {
          "name": "",
          "type": "address"
        }
      ],
      "payable": false,
      "stateMutability": "view",
      "type": "function"
    },
    {
      "constant": false,
      "inputs": [
        {
          "name": "tokenId",
          "type": "uint256"
        },
        {
          "name": "valid",
          "type": "bool"
        }
      ],
      "name": "isavailable",
      "outputs": [],
      "payable": false,
      "stateMutability": "nonpayable",
      "type": "function"
    },
    {
      "constant": false,
      "inputs": [
        {
          "name": "tokenId",
          "type": "uint256"
        },
        {
          "name": "valid",
          "type": "bool"
        }
      ],
      "name": "waterbill",
      "outputs": [],
      "payable": false,
      "stateMutability": "nonpayable",
      "type": "function"
    },
    {
      "constant": false,
      "inputs": [
        {
          "name": "tokenId",
          "type": "uint256"
        },
        {
          "name": "valid",
          "type": "bool"
        }
      ],
      "name": "electric",
      "outputs": [],
      "payable": false,
      "stateMutability": "nonpayable",
      "type": "function"
    },
    {
      "constant": false,
      "inputs": [
        {
          "name": "tokenId",
          "type": "uint256"
        },
        {
          "name": "valid",
          "type": "bool"
        }
      ],
      "name": "loan",
      "outputs": [],
      "payable": false,
      "stateMutability": "nonpayable",
      "type": "function"
    },
    {
      "constant": false,
      "inputs": [
        {
          "name": "tokenId",
          "type": "uint256"
        }
      ],
      "name": "isallclear",
      "outputs": [],
      "payable": false,
      "stateMutability": "nonpayable",
      "type": "function"
    },
    {
      "constant": false,
      "inputs": [
        {
          "name": "from",
          "type": "address"
        },
        {
          "name": "to",
          "type": "address"
        },
        {
          "name": "tokenId",
          "type": "uint256"
        },
        {
          "name": "no",
          "type": "string"
        },
        {
          "name": "fname",
          "type": "string"
        },
        {
          "name": "lname",
          "type": "string"
        }
      ],
      "name": "transfer",
      "outputs": [],
      "payable": false,
      "stateMutability": "nonpayable",
      "type": "function"
    }
  ],
  "bytecode": "0x60806040526104d2600d556000600e553480156200001c57600080fd5b506040518060400160405280600681526020017f6c616e646e6f00000000000000000000000000000000000000000000000000008152506040518060400160405280600481526020017f4c616e64000000000000000000000000000000000000000000000000000000008152508181620000a36301ffc9a760e01b6200012160201b60201c565b620000bb6380ac58cd60e01b6200012160201b60201c565b620000d363780e9d6360e01b6200012160201b60201c565b8151620000e8906009906020850190620001f0565b508051620000fe90600a906020840190620001f0565b5062000117635b5e139f60e01b6200012160201b60201c565b5050505062000295565b7fffffffff000000000000000000000000000000000000000000000000000000008082161415620001b357604080517f08c379a000000000000000000000000000000000000000000000000000000000815260206004820152601c60248201527f4552433136353a20696e76616c696420696e7465726661636520696400000000604482015290519081900360640190fd5b7fffffffff00000000000000000000000000000000000000000000000000000000166000908152602081905260409020805460ff19166001179055565b828054600181600116156101000203166002900490600052602060002090601f016020900481019282601f106200023357805160ff191683800117855562000263565b8280016001018555821562000263579182015b828111156200026357825182559160200191906001019062000246565b506200027192915062000275565b5090565b6200029291905b808211156200027157600081556001016200027c565b90565b6139b280620002a56000396000f3fe608060405234801561001057600080fd5b50600436106101da5760003560e01c806370a0823111610104578063b590065b116100a2578063e79c22d711610071578063e79c22d7146107c1578063e985e9c5146107e6578063edbf368414610814578063fcec4b59146109e2576101da565b8063b590065b146106a6578063b88d4fde146106c3578063c80fa8ee14610787578063c87b56dd146107a4576101da565b8063a0712d68116100de578063a0712d6814610619578063a123c33e14610636578063a22cb46514610653578063a2e3480e14610681576101da565b806370a08231146105e35780638466c3e61461060957806395d89b4114610611576101da565b806323b872dd1161017c578063588b450a1161014b578063588b450a146105745780635c685009146105995780636352211e146105be5780636c0360eb146105db576101da565b806323b872dd146104bf5780632f745c59146104f557806342842e0e146105215780634f6ccce714610557576101da565b8063095ea7b3116101b8578063095ea7b3146102d05780630b1e7f83146102fe57806317906c2e1461049d57806318160ddd146104b7576101da565b806301ffc9a7146101df57806306fdde031461021a578063081812fc14610297575b600080fd5b610206600480360360208110156101f557600080fd5b50356001600160e01b031916610ba5565b604080519115158252519081900360200190f35b610222610bc8565b6040805160208082528351818301528351919283929083019185019080838360005b8381101561025c578181015183820152602001610244565b50505050905090810190601f1680156102895780820380516001836020036101000a031916815260200191505b509250505060405180910390f35b6102b4600480360360208110156102ad57600080fd5b5035610c5f565b604080516001600160a01b039092168252519081900360200190f35b6102fc600480360360408110156102e657600080fd5b506001600160a01b038135169060200135610cc4565b005b61031b6004803603602081101561031457600080fd5b5035610df2565b60408051606081018890526001600160a01b038716608082015285151560a082015284151560c082015283151560e08201528215156101008201526101208082528b51908201528a51909182916020808401928401916101408501918f019080838360005b83811015610398578181015183820152602001610380565b50505050905090810190601f1680156103c55780820380516001836020036101000a031916815260200191505b5084810383528c5181528c516020918201918e019080838360005b838110156103f85781810151838201526020016103e0565b50505050905090810190601f1680156104255780820380516001836020036101000a031916815260200191505b5084810382528b5181528b516020918201918d019080838360005b83811015610458578181015183820152602001610440565b50505050905090810190601f1680156104855780820380516001836020036101000a031916815260200191505b509c5050505050505050505050505060405180910390f35b6104a5611003565b60408051918252519081900360200190f35b6104a5611009565b6102fc600480360360608110156104d557600080fd5b506001600160a01b0381358116916020810135909116906040013561100f565b6104a56004803603604081101561050b57600080fd5b506001600160a01b03813516906020013561106e565b6102fc6004803603606081101561053757600080fd5b506001600160a01b038135811691602081013590911690604001356110f0565b6104a56004803603602081101561056d57600080fd5b503561110b565b6102fc6004803603604081101561058a57600080fd5b50803590602001351515611174565b6102fc600480360360408110156105af57600080fd5b50803590602001351515611428565b6102b4600480360360208110156105d457600080fd5b50356116e4565b610222611741565b6104a5600480360360208110156105f957600080fd5b50356001600160a01b03166117a2565b6104a561180d565b610222611813565b6102fc6004803603602081101561062f57600080fd5b5035611874565b6102b46004803603602081101561064c57600080fd5b503561196b565b6102fc6004803603604081101561066957600080fd5b506001600160a01b0381351690602001351515611986565b6102fc6004803603604081101561069757600080fd5b50803590602001351515611a8e565b6102fc600480360360208110156106bc57600080fd5b5035611d42565b6102fc600480360360808110156106d957600080fd5b6001600160a01b03823581169260208101359091169160408201359190810190608081016060820135600160201b81111561071357600080fd5b82018360208201111561072557600080fd5b803590602001918460018302840111600160201b8311171561074657600080fd5b91908080601f016020809104026020016040519081016040528093929190818152602001838380828437600092019190915250929550611dc1945050505050565b6104a56004803603602081101561079d57600080fd5b5035611e22565b610222600480360360208110156107ba57600080fd5b5035611e40565b6102fc600480360360408110156107d757600080fd5b5080359060200135151561200f565b610206600480360360408110156107fc57600080fd5b506001600160a01b03813581169160200135166122c3565b6102fc600480360360c081101561082a57600080fd5b6001600160a01b03823581169260208101359091169160408201359190810190608081016060820135600160201b81111561086457600080fd5b82018360208201111561087657600080fd5b803590602001918460018302840111600160201b8311171561089757600080fd5b91908080601f0160208091040260200160405190810160405280939291908181526020018383808284376000920191909152509295949360208101935035915050600160201b8111156108e957600080fd5b8201836020820111156108fb57600080fd5b803590602001918460018302840111600160201b8311171561091c57600080fd5b91908080601f0160208091040260200160405190810160405280939291908181526020018383808284376000920191909152509295949360208101935035915050600160201b81111561096e57600080fd5b82018360208201111561098057600080fd5b803590602001918460018302840111600160201b831117156109a157600080fd5b91908080601f0160208091040260200160405190810160405280939291908181526020018383808284376000920191909152509295506122f1945050505050565b6102fc600480360360a08110156109f857600080fd5b6001600160a01b0382351691602081013591810190606081016040820135600160201b811115610a2757600080fd5b820183602082011115610a3957600080fd5b803590602001918460018302840111600160201b83111715610a5a57600080fd5b91908080601f0160208091040260200160405190810160405280939291908181526020018383808284376000920191909152509295949360208101935035915050600160201b811115610aac57600080fd5b820183602082011115610abe57600080fd5b803590602001918460018302840111600160201b83111715610adf57600080fd5b91908080601f0160208091040260200160405190810160405280939291908181526020018383808284376000920191909152509295949360208101935035915050600160201b811115610b3157600080fd5b820183602082011115610b4357600080fd5b803590602001918460018302840111600160201b83111715610b6457600080fd5b91908080601f01602080910402602001604051908101604052809392919081815260200183838082843760009201919091525092955061298d945050505050565b6001600160e01b0319811660009081526020819052604090205460ff165b919050565b60098054604080516020601f6002600019610100600188161502019095169490940493840181900481028201810190925282815260609390929091830182828015610c545780601f10610c2957610100808354040283529160200191610c54565b820191906000526020600020905b815481529060010190602001808311610c3757829003601f168201915b505050505090505b90565b6000610c6a82612d23565b610ca857604051600160e51b62461bcd02815260040180806020018281038252602c815260200180613885602c913960400191505060405180910390fd5b506000908152600260205260409020546001600160a01b031690565b6000610ccf826116e4565b9050806001600160a01b0316836001600160a01b03161415610d2557604051600160e51b62461bcd0281526004018080602001828103825260218152602001806139096021913960400191505060405180910390fd5b806001600160a01b0316610d37612d40565b6001600160a01b03161480610d585750610d5881610d53612d40565b6122c3565b610d9657604051600160e51b62461bcd0281526004018080602001828103825260388152602001806137fa6038913960400191505060405180910390fd5b60008281526002602052604080822080546001600160a01b0319166001600160a01b0387811691821790925591518593918516917f8c5be1e5ebec7d5bd14f71427d1e84f3dd0314c0f7b2291e5b200ac8c7c3b92591a4505050565b60106020908152600091825260409182902080548351601f60026000196101006001861615020190931692909204918201849004840281018401909452808452909291839190830182828015610e895780601f10610e5e57610100808354040283529160200191610e89565b820191906000526020600020905b815481529060010190602001808311610e6c57829003601f168201915b505050505090806001018054600181600116156101000203166002900480601f016020809104026020016040519081016040528092919081815260200182805460018160011615610100020316600290048015610f275780601f10610efc57610100808354040283529160200191610f27565b820191906000526020600020905b815481529060010190602001808311610f0a57829003601f168201915b50505060028085018054604080516020601f6000196101006001871615020190941695909504928301859004850281018501909152818152959695945090925090830182828015610fb95780601f10610f8e57610100808354040283529160200191610fb9565b820191906000526020600020905b815481529060010190602001808311610f9c57829003601f168201915b50505060038401546004909401549293926001600160a01b038116925060ff600160a01b820481169250600160a81b8204811691600160b01b8104821691600160b81b9091041689565b600e5481565b60075490565b61102061101a612d40565b82612d44565b61105e57604051600160e51b62461bcd02815260040180806020018281038252603181526020018061392a6031913960400191505060405180910390fd5b611069838383612deb565b505050565b6000611079836117a2565b82106110b957604051600160e51b62461bcd02815260040180806020018281038252602b81526020018061374d602b913960400191505060405180910390fd5b6001600160a01b03831660009081526005602052604090208054839081106110dd57fe5b9060005260206000200154905092915050565b61106983838360405180602001604052806000815250611dc1565b6000611115611009565b821061115557604051600160e51b62461bcd02815260040180806020018281038252602c81526020018061395b602c913960400191505060405180910390fd5b6007828154811061116257fe5b90600052602060002001549050919050565b7348e93e9ad94ea0aad209abe5bc879040447ace98331461119457600080fd5b61119c613637565b6000838152601060209081526040918290208251815460026001821615610100026000190190911604601f81018490049093028101610140908101909452610120810183815290939192849284919084018282801561123c5780601f106112115761010080835404028352916020019161123c565b820191906000526020600020905b81548152906001019060200180831161121f57829003601f168201915b50505050508152602001600182018054600181600116156101000203166002900480601f0160208091040260200160405190810160405280929190818152602001828054600181600116156101000203166002900480156112de5780601f106112b3576101008083540402835291602001916112de565b820191906000526020600020905b8154815290600101906020018083116112c157829003601f168201915b5050509183525050600282810180546040805160206001841615610100026000190190931694909404601f810183900483028501830190915280845293810193908301828280156113705780601f1061134557610100808354040283529160200191611370565b820191906000526020600020905b81548152906001019060200180831161135357829003601f168201915b5050509183525050600382015460208201526004909101546001600160a01b038116604083015260ff600160a01b8204811615156060840152600160a81b8204811615156080840152600160b01b82048116151560a0840152600160b81b90910416151560c09091015290508115611408576000838152601660205260409020805460ff1916600190811790915560c0820152611069565b6000838152601660205260408120805460ff1916905560c0820152505050565b6114318261196b565b6001600160a01b0316336001600160a01b03161461144e57600080fd5b611456613637565b6000838152601060209081526040918290208251815460026001821615610100026000190190911604601f8101849004909302810161014090810190945261012081018381529093919284928491908401828280156114f65780601f106114cb576101008083540402835291602001916114f6565b820191906000526020600020905b8154815290600101906020018083116114d957829003601f168201915b50505050508152602001600182018054600181600116156101000203166002900480601f0160208091040260200160405190810160405280929190818152602001828054600181600116156101000203166002900480156115985780601f1061156d57610100808354040283529160200191611598565b820191906000526020600020905b81548152906001019060200180831161157b57829003601f168201915b5050509183525050600282810180546040805160206001841615610100026000190190931694909404601f8101839004830285018301909152808452938101939083018282801561162a5780601f106115ff5761010080835404028352916020019161162a565b820191906000526020600020905b81548152906001019060200180831161160d57829003601f168201915b5050509183525050600382015460208201526004909101546001600160a01b038116604083015260ff600160a01b8204811615156060840152600160a81b8204811615156080840152600160b01b82048116151560a0840152600160b81b90910416151560c090910152905081156116c3576000838152601360205260409020805460ff19166001908117909155610100820152611069565b6000838152601360205260408120805460ff19169055610100820152505050565b6000818152600160205260408120546001600160a01b03168061173b57604051600160e51b62461bcd02815260040180806020018281038252602981526020018061385c6029913960400191505060405180910390fd5b92915050565b600b8054604080516020601f6002600019610100600188161502019095169490940493840181900481028201810190925282815260609390929091830182828015610c545780601f10610c2957610100808354040283529160200191610c54565b60006001600160a01b0382166117ec57604051600160e51b62461bcd02815260040180806020018281038252602a815260200180613832602a913960400191505060405180910390fd5b6001600160a01b038216600090815260036020526040902061173b90612e0a565b600d5481565b600a8054604080516020601f6002600019610100600188161502019095169490940493840181900481028201810190925282815260609390929091830182828015610c545780601f10610c2957610100808354040283529160200191610c54565b60008181526011602052604090205460ff161561189057600080fd5b73917937a261789cf3380021944a1464fa38586f0e33146118b057600080fd5b600f8054600181018083556000929092527f8d1108e10bcb7c27dddfc02ed9d693a074039d026cf4ea4240b40f7d581ac802018290556118f03382612e0e565b506000908152601160209081526040808320805460ff199081166001179091556012835281842080548216905560138352818420805482169055601483528184208054821690556015835281842080548216905560168352818420805490911690556017909152902080546001600160a01b03191633179055565b6000908152601760205260409020546001600160a01b031690565b61198e612d40565b6001600160a01b0316826001600160a01b031614156119f75760408051600160e51b62461bcd02815260206004820152601960248201527f4552433732313a20617070726f766520746f2063616c6c657200000000000000604482015290519081900360640190fd5b8060046000611a04612d40565b6001600160a01b03908116825260208083019390935260409182016000908120918716808252919093529120805460ff191692151592909217909155611a48612d40565b60408051841515815290516001600160a01b0392909216917f17307eab39ab6107e8899845ad3d59bd9653f200f220920489ca2b5937696c319181900360200190a35050565b7348e93e9ad94ea0aad209abe5bc879040447ace983314611aae57600080fd5b611ab6613637565b6000838152601060209081526040918290208251815460026001821615610100026000190190911604601f810184900490930281016101409081019094526101208101838152909391928492849190840182828015611b565780601f10611b2b57610100808354040283529160200191611b56565b820191906000526020600020905b815481529060010190602001808311611b3957829003601f168201915b50505050508152602001600182018054600181600116156101000203166002900480601f016020809104026020016040519081016040528092919081815260200182805460018160011615610100020316600290048015611bf85780601f10611bcd57610100808354040283529160200191611bf8565b820191906000526020600020905b815481529060010190602001808311611bdb57829003601f168201915b5050509183525050600282810180546040805160206001841615610100026000190190931694909404601f81018390048302850183019091528084529381019390830182828015611c8a5780601f10611c5f57610100808354040283529160200191611c8a565b820191906000526020600020905b815481529060010190602001808311611c6d57829003601f168201915b5050509183525050600382015460208201526004909101546001600160a01b038116604083015260ff600160a01b8204811615156060840152600160a81b8204811615156080840152600160b01b82048116151560a0840152600160b81b90910416151560c09091015290508115611d22576000838152601460205260409020805460ff1916600190811790915560a0820152611069565b6000838152601460205260408120805460ff1916905560a0820152505050565b60008181526013602052604090205460ff1680611d6d575060008181526014602052604090205460ff165b80611d86575060008181526015602052604090205460ff165b80611d9f575060008181526016602052604090205460ff165b15611dbe576000818152601260205260409020805460ff191660011790555b50565b611dd2611dcc612d40565b83612d44565b611e1057604051600160e51b62461bcd02815260040180806020018281038252603181526020018061392a6031913960400191505060405180910390fd5b611e1c84848484612e2f565b50505050565b600f8181548110611e2f57fe5b600091825260209091200154905081565b6060611e4b82612d23565b611e8957604051600160e51b62461bcd02815260040180806020018281038252602f8152602001806138da602f913960400191505060405180910390fd5b6000828152600c602090815260409182902080548351601f6002600019610100600186161502019093169290920491820184900484028101840190945280845260609392830182828015611f1e5780601f10611ef357610100808354040283529160200191611f1e565b820191906000526020600020905b815481529060010190602001808311611f0157829003601f168201915b50505050509050805160001415611f45575050604080516020810190915260008152610bc3565b600b816040516020018083805460018160011615610100020316600290048015611fa65780601f10611f84576101008083540402835291820191611fa6565b820191906000526020600020905b815481529060010190602001808311611f92575b5050825160208401908083835b60208310611fd25780518252601f199092019160209182019101611fb3565b6001836020036101000a03801982511681845116808217855250505050505090500192505050604051602081830303815290604052915050610bc3565b7348e93e9ad94ea0aad209abe5bc879040447ace98331461202f57600080fd5b612037613637565b6000838152601060209081526040918290208251815460026001821615610100026000190190911604601f8101849004909302810161014090810190945261012081018381529093919284928491908401828280156120d75780601f106120ac576101008083540402835291602001916120d7565b820191906000526020600020905b8154815290600101906020018083116120ba57829003601f168201915b50505050508152602001600182018054600181600116156101000203166002900480601f0160208091040260200160405190810160405280929190818152602001828054600181600116156101000203166002900480156121795780601f1061214e57610100808354040283529160200191612179565b820191906000526020600020905b81548152906001019060200180831161215c57829003601f168201915b5050509183525050600282810180546040805160206001841615610100026000190190931694909404601f8101839004830285018301909152808452938101939083018282801561220b5780601f106121e05761010080835404028352916020019161220b565b820191906000526020600020905b8154815290600101906020018083116121ee57829003601f168201915b5050509183525050600382015460208201526004909101546001600160a01b038116604083015260ff600160a01b8204811615156060840152600160a81b8204811615156080840152600160b01b82048116151560a0840152600160b81b90910416151560c090910152905081156122a3576000838152601560205260409020805460ff1916600190811790915560e0820152611069565b6000838152601560205260408120805460ff1916905560e0820152505050565b6001600160a01b03918216600090815260046020908152604080832093909416825291909152205460ff1690565b6122fa8461196b565b6001600160a01b0316336001600160a01b03161461231757600080fd5b60008481526012602052604090205460ff1661233257600080fd5b600084815260176020526040902080546001600160a01b0319166001600160a01b038716179055612361613637565b6000858152601060209081526040918290208251815460026001821615610100026000190190911604601f8101849004909302810161014090810190945261012081018381529093919284928491908401828280156124015780601f106123d657610100808354040283529160200191612401565b820191906000526020600020905b8154815290600101906020018083116123e457829003601f168201915b50505050508152602001600182018054600181600116156101000203166002900480601f0160208091040260200160405190810160405280929190818152602001828054600181600116156101000203166002900480156124a35780601f10612478576101008083540402835291602001916124a3565b820191906000526020600020905b81548152906001019060200180831161248657829003601f168201915b5050509183525050600282810180546040805160206001841615610100026000190190931694909404601f810183900483028501830190915280845293810193908301828280156125355780601f1061250a57610100808354040283529160200191612535565b820191906000526020600020905b81548152906001019060200180831161251857829003601f168201915b505050918352505060038201546020808301919091526004909201546001600160a01b0380821660408085019190915260ff600160a01b8404811615156060860152600160a81b840481161515608080870191909152600160b01b85048216151560a0870152600160b81b90940416151560c0909401939093528a16908401528282018690528281018590528683526000888152601083522082518051939450849391926125e892849290910190613694565b5060208281015180516126019260018501920190613694565b506040820151805161261d916002840191602090910190613694565b506060820151816003015560808201518160040160006101000a8154816001600160a01b0302191690836001600160a01b0316021790555060a08201518160040160146101000a81548160ff02191690831515021790555060c08201518160040160156101000a81548160ff02191690831515021790555060e08201518160040160166101000a81548160ff0219169083151502179055506101008201518160040160176101000a81548160ff02191690831515021790555090505060006012600087815260200190815260200160002060006101000a81548160ff02191690831515021790555060006013600087815260200190815260200160002060006101000a81548160ff02191690831515021790555060006014600087815260200190815260200160002060006101000a81548160ff02191690831515021790555060006015600087815260200190815260200160002060006101000a81548160ff02191690831515021790555060006016600087815260200190815260200160002060006101000a81548160ff0219169083151502179055507fe52ca7543f09c8bbd6c5634bb5fcab97a0c3083aaf3453570b7667e3ace2ebcb81600001518260200151836040015184606001518560800151600080600080604051808060200180602001806020018a8152602001896001600160a01b03166001600160a01b031681526020018815151515815260200187151515158152602001861515151581526020018515151515815260200184810384528d818151815260200191508051906020019080838360005b83811015612880578181015183820152602001612868565b50505050905090810190601f1680156128ad5780820380516001836020036101000a031916815260200191505b5084810383528c5181528c516020918201918e019080838360005b838110156128e05781810151838201526020016128c8565b50505050905090810190601f16801561290d5780820380516001836020036101000a031916815260200191505b5084810382528b5181528b516020918201918d019080838360005b83811015612940578181015183820152602001612928565b50505050905090810190601f16801561296d5780820380516001836020036101000a031916815260200191505b509c5050505050505050505050505060405180910390a150505050505050565b60008481526011602052604090205460ff166129a857600080fd5b73917937a261789cf3380021944a1464fa38586f0e33146129c857600080fd5b600084815260176020526040902080546001600160a01b0319166001600160a01b038716179055600e548411156129ff57600e8490555b60408051610120810182528481526020808201859052818301849052606082018790526001600160a01b0388166080830152600060a0830181905260c0830181905260e08301819052610100830181905287815260108252929092208151805192939192612a709284920190613694565b506020828101518051612a899260018501920190613694565b5060408201518051612aa5916002840191602090910190613694565b506060820151816003015560808201518160040160006101000a8154816001600160a01b0302191690836001600160a01b0316021790555060a08201518160040160146101000a81548160ff02191690831515021790555060c08201518160040160156101000a81548160ff02191690831515021790555060e08201518160040160166101000a81548160ff0219169083151502179055506101008201518160040160176101000a81548160ff0219169083151502179055509050507fe52ca7543f09c8bbd6c5634bb5fcab97a0c3083aaf3453570b7667e3ace2ebcb8383838789600080600080604051808060200180602001806020018a8152602001896001600160a01b03166001600160a01b031681526020018815151515815260200187151515158152602001861515151581526020018515151515815260200184810384528d818151815260200191508051906020019080838360005b83811015612c18578181015183820152602001612c00565b50505050905090810190601f168015612c455780820380516001836020036101000a031916815260200191505b5084810383528c5181528c516020918201918e019080838360005b83811015612c78578181015183820152602001612c60565b50505050905090810190601f168015612ca55780820380516001836020036101000a031916815260200191505b5084810382528b5181528b516020918201918d019080838360005b83811015612cd8578181015183820152602001612cc0565b50505050905090810190601f168015612d055780820380516001836020036101000a031916815260200191505b509c5050505050505050505050505060405180910390a15050505050565b6000908152600160205260409020546001600160a01b0316151590565b3390565b6000612d4f82612d23565b612d8d57604051600160e51b62461bcd02815260040180806020018281038252602c8152602001806137ce602c913960400191505060405180910390fd5b6000612d98836116e4565b9050806001600160a01b0316846001600160a01b03161480612dd35750836001600160a01b0316612dc884610c5f565b6001600160a01b0316145b80612de35750612de381856122c3565b949350505050565b612df6838383612e84565b612e008382612fce565b61106982826130c3565b5490565b612e188282613101565b612e2282826130c3565b612e2b81613238565b5050565b612e3a848484612deb565b612e468484848461327c565b611e1c57604051600160e51b62461bcd0281526004018080602001828103825260328152602001806137786032913960400191505060405180910390fd5b826001600160a01b0316612e97826116e4565b6001600160a01b031614612edf57604051600160e51b62461bcd0281526004018080602001828103825260298152602001806138b16029913960400191505060405180910390fd5b6001600160a01b038216612f2757604051600160e51b62461bcd0281526004018080602001828103825260248152602001806137aa6024913960400191505060405180910390fd5b612f30816134c0565b6001600160a01b0383166000908152600360205260409020612f51906134fb565b6001600160a01b0382166000908152600360205260409020612f7290613512565b60008181526001602052604080822080546001600160a01b0319166001600160a01b0386811691821790925591518493918716917fddf252ad1be2c89b69c2b068fc378daa952ba7f163c4a11628f55a4df523b3ef91a4505050565b6001600160a01b038216600090815260056020526040812054612ff890600163ffffffff61351b16565b600083815260066020526040902054909150808214613093576001600160a01b038416600090815260056020526040812080548490811061303557fe5b906000526020600020015490508060056000876001600160a01b03166001600160a01b03168152602001908152602001600020838154811061307357fe5b600091825260208083209091019290925591825260069052604090208190555b6001600160a01b03841660009081526005602052604090208054906130bc906000198301613712565b5050505050565b6001600160a01b0390911660009081526005602081815260408084208054868652600684529185208290559282526001810183559183529091200155565b6001600160a01b03821661315f5760408051600160e51b62461bcd02815260206004820181905260248201527f4552433732313a206d696e7420746f20746865207a65726f2061646472657373604482015290519081900360640190fd5b61316881612d23565b156131bd5760408051600160e51b62461bcd02815260206004820152601c60248201527f4552433732313a20746f6b656e20616c7265616479206d696e74656400000000604482015290519081900360640190fd5b600081815260016020908152604080832080546001600160a01b0319166001600160a01b0387169081179091558352600390915290206131fc90613512565b60405181906001600160a01b038416906000907fddf252ad1be2c89b69c2b068fc378daa952ba7f163c4a11628f55a4df523b3ef908290a45050565b600780546000838152600860205260408120829055600182018355919091527fa66cc928b5edb82af9bd49922954155ab7b0942694bea4ce44661d9a8736c6880155565b6000613290846001600160a01b0316613564565b61329c57506001612de3565b600060606001600160a01b038616600160e11b630a85bd01026132bd612d40565b89888860405160240180856001600160a01b03166001600160a01b03168152602001846001600160a01b03166001600160a01b0316815260200183815260200180602001828103825283818151815260200191508051906020019080838360005b8381101561333657818101518382015260200161331e565b50505050905090810190601f1680156133635780820380516001836020036101000a031916815260200191505b5060408051601f198184030181529181526020820180516001600160e01b03166001600160e01b0319909a16999099178952518151919890975087965094509250829150849050835b602083106133cb5780518252601f1990920191602091820191016133ac565b6001836020036101000a0380198251168184511680821785525050505050509050019150506000604051808303816000865af19150503d806000811461342d576040519150601f19603f3d011682016040523d82523d6000602084013e613432565b606091505b5091509150816134865780511561344c5780518082602001fd5b604051600160e51b62461bcd0281526004018080602001828103825260328152602001806137786032913960400191505060405180910390fd5b600081806020019051602081101561349d57600080fd5b50516001600160e01b031916600160e11b630a85bd0102149350612de392505050565b6000818152600260205260409020546001600160a01b031615611dbe57600090815260026020526040902080546001600160a01b0319169055565b805461350e90600163ffffffff61351b16565b9055565b80546001019055565b600061355d83836040518060400160405280601e81526020017f536166654d6174683a207375627472616374696f6e206f766572666c6f77000081525061359d565b9392505050565b6000813f7fc5d2460186f7233c927e7db2dcc703c0e500b653ca82273b7bfad8045d85a470818114801590612de3575050151592915050565b6000818484111561362f57604051600160e51b62461bcd0281526004018080602001828103825283818151815260200191508051906020019080838360005b838110156135f45781810151838201526020016135dc565b50505050905090810190601f1680156136215780820380516001836020036101000a031916815260200191505b509250505060405180910390fd5b505050900390565b6040518061012001604052806060815260200160608152602001606081526020016000815260200160006001600160a01b031681526020016000151581526020016000151581526020016000151581526020016000151581525090565b828054600181600116156101000203166002900490600052602060002090601f016020900481019282601f106136d557805160ff1916838001178555613702565b82800160010185558215613702579182015b828111156137025782518255916020019190600101906136e7565b5061370e929150613732565b5090565b815481835581811115611069576000838152602090206110699181019083015b610c5c91905b8082111561370e576000815560010161373856fe455243373231456e756d657261626c653a206f776e657220696e646578206f7574206f6620626f756e64734552433732313a207472616e7366657220746f206e6f6e20455243373231526563656976657220696d706c656d656e7465724552433732313a207472616e7366657220746f20746865207a65726f20616464726573734552433732313a206f70657261746f7220717565727920666f72206e6f6e6578697374656e7420746f6b656e4552433732313a20617070726f76652063616c6c6572206973206e6f74206f776e6572206e6f7220617070726f76656420666f7220616c6c4552433732313a2062616c616e636520717565727920666f7220746865207a65726f20616464726573734552433732313a206f776e657220717565727920666f72206e6f6e6578697374656e7420746f6b656e4552433732313a20617070726f76656420717565727920666f72206e6f6e6578697374656e7420746f6b656e4552433732313a207472616e73666572206f6620746f6b656e2074686174206973206e6f74206f776e4552433732314d657461646174613a2055524920717565727920666f72206e6f6e6578697374656e7420746f6b656e4552433732313a20617070726f76616c20746f2063757272656e74206f776e65724552433732313a207472616e736665722063616c6c6572206973206e6f74206f776e6572206e6f7220617070726f766564455243373231456e756d657261626c653a20676c6f62616c20696e646578206f7574206f6620626f756e6473a165627a7a72305820c86df45674143bccf9e5291673b61836c006e72ef495fc0aa66bdc4f333b18d10029",
  "source": "pragma solidity 0.5.8;\r\n\r\nimport \"@openzeppelin/contracts/token/ERC721/ERC721Full.sol\";\r\ncontract Land is ERC721Full {\r\n\r\nuint public aa=1234;\r\n uint public postCount = 0;\r\n     \r\n       \r\n   \r\n    \r\n     uint[] public landno;  //for storing land\r\n\r\n\r\n  mapping(uint => Citizen) public posts;\r\n   mapping(uint => bool) landminted; // for checking the minting staus of land(minted or not)\r\n    mapping (uint => bool) services;\r\n     //mapping (string => bool) checkvalues;\r\n      mapping (uint => bool) availables;\r\n       mapping (uint=> bool) waterrs;\r\n        mapping (uint => bool) eleccs;\r\n         mapping (uint => bool) loanns;\r\n    \r\n    mapping(uint => address) private landOwner;\r\n //   mapping(string => address) private adhaarno;\r\n\r\n //mapping citizen to his land\r\n  //  mapping(address => Citizen) citizens;\r\n   // address[] public citizendetail;\r\n\r\n\r\n    struct Citizen {\r\n        \r\n        string adhaarno;\r\n        string fname;\r\n        string lname;\r\n        uint tokenid;\r\n        address owner;\r\n        bool water;\r\n        bool bank;\r\n        bool elec;\r\n        bool avail;\r\n        \r\n    }\r\n    \r\nevent PostCreated(\r\n        string adhaarno,\r\n        string fname,\r\n        string lname,\r\n        uint tokenid,\r\n        address owner,\r\n         bool water,\r\n        bool bank,\r\n        bool elec,\r\n        bool avail\r\n\r\n         );\r\n\r\n\r\n\r\n    constructor() ERC721Full(\"landno\",\"Land\") public {\r\n\r\n        }\r\n\r\n\r\n\r\n\r\n\r\n//To get the Details of land owner\r\n/*\r\nfunction getcitizen(address add) view public returns(string memory,string memory,string memory)\r\n{\r\n    return (citizens[add].adhaarno,citizens[add].fname,citizens[add].lname);\r\n}\r\n\r\n\r\n\r\n\r\n*/\r\n\r\n// Task of government\r\nfunction mint(uint mland) public {\r\n\r\n   \r\n   require (!landminted[mland]);  //land should not be minted previously\r\n   require (msg.sender==0x917937a261789cf3380021944A1464Fa38586f0e);\r\n   uint no = landno.push(mland); // adds land to the array of minted land\r\n   _mint(msg.sender,no);        //assign land ro the sender of function\r\n    landminted[mland]=true; \r\n\r\n    services[mland]=false;\r\n   //checkvalues[mland]=false;\r\n    availables[mland]=false;\r\n     waterrs[mland]=false;\r\n    eleccs[mland]=false;\r\n    loanns[mland]=false;\r\n\r\n    landOwner[mland]=msg.sender;    // assigns true value so that it cannot be minted again\r\n    \r\n}\r\n     \r\n\r\n\r\n//Government assigning land to their particular owner based on their adhaar card\r\n\r\n\r\nfunction govtransfer(address to, uint  tokenId,string memory no,string memory name,string  memory lnamee) public{\r\nrequire (landminted[tokenId]);\r\nrequire (msg.sender==0x917937a261789cf3380021944A1464Fa38586f0e);\r\n//require (services[tokenId]);\r\n\r\n\r\nlandOwner[tokenId]=to;\r\n//adhaarno[madhaar]=to;\r\n //Citizen storage citizen = citizens[to];\r\nif(postCount<tokenId)\r\n{\r\n  postCount=tokenId;\r\n}\r\n  //  citizendetail.push(to) -1;\r\n    posts[tokenId] =  Citizen(no,name,lnamee,tokenId,to,false,false,false,false);\r\n emit PostCreated(no,name,lnamee,tokenId,to,false,false,false,false);\r\n}\r\n\r\n\r\n//this function will specify the current owner of the land\r\n  \r\n // function ownerOf(string memory tokenId/*,string memory madhaar*/) public view returns(string memory,string memory,string memory)   {\r\n \r\n       // address owner = landOwner[tokenId];\r\n       // address ownera =adhaarno[madhaar];\r\n      //  require(owner != address(0), \"ERC721: owner query for nonexistent token\");\r\n      //  require (ownera==owner);\r\n       // return getcitizen(owner);\r\n  //  }\r\n\r\n\r\n function owner(uint  tokenId/*,string memory madhaar*/) public view returns(address)   {\r\n \r\n        address owner1 = landOwner[tokenId];\r\n       // address ownera =adhaarno[madhaar];\r\n      //  require(owner1 != address(0), \"ERC721: owner query for nonexistent token\");\r\n      //  require (ownera==owner);\r\n        return owner1;\r\n    }\r\n\r\n\r\n    // this function will transfer the land frond one owner to the another\r\n   \r\n\r\n\r\n\r\n    //conformation of all services\r\n   \r\n   \r\n   \r\n\r\n function isavailable(uint  tokenId,bool valid)  public{\r\n   \r\n\r\n   require (msg.sender==owner(tokenId));\r\n Citizen memory _post = posts[tokenId];\r\n          \r\n     \r\n          \r\n            \r\n         if(valid)\r\n          {\r\n      \r\n           availables[tokenId] = true;\r\n           _post.avail=true;\r\n       }\r\n       else\r\n       {\r\n       availables[tokenId] = false;\r\n     _post.avail=false;\r\n       }\r\n      \r\n       \r\n      \r\n         \r\n    }\r\n     \r\n       \r\n    \r\n    \r\n        \r\n      \r\n     function waterbill(uint tokenId,bool valid) public\r\n   {\r\n            require (msg.sender==0x48E93E9ad94ea0AAd209aBe5BC879040447aCE98);\r\n       Citizen memory _post = posts[tokenId];\r\n           \r\n       \r\n         if(valid)\r\n          {\r\n      \r\n             waterrs[tokenId] = true;\r\n             _post.water=true;\r\n       }\r\n       else\r\n       {\r\n       waterrs[tokenId] = false;\r\n        _post.water=false;\r\n       }\r\n      \r\n       \r\n    }\r\n    \r\n     function electric(uint  tokenId,bool valid) \r\n    public\r\n   {\r\n          require (msg.sender==0x48E93E9ad94ea0AAd209aBe5BC879040447aCE98);\r\n       \r\n              Citizen memory _post = posts[tokenId];\r\n       \r\n         if(valid)\r\n          {\r\n      \r\n            eleccs[tokenId] = true;\r\n            _post.elec=true;\r\n       }\r\n       else\r\n       {\r\n       eleccs[tokenId] = false;\r\n        _post.elec=false;\r\n       }\r\n      \r\n    }\r\n    \r\n     function loan(uint  tokenId,bool valid)  public\r\n    {\r\n          require (msg.sender==0x48E93E9ad94ea0AAd209aBe5BC879040447aCE98);\r\n         Citizen memory _post = posts[tokenId];\r\n      \r\n           \r\n         if(valid)\r\n          {\r\n      \r\n             loanns[tokenId] = true;\r\n             _post.bank=true;\r\n       }\r\n       else\r\n       {\r\n        loanns[tokenId] = false;\r\n         _post.bank=false;\r\n       }\r\n      \r\n\r\n    }\r\n     \r\n\r\nfunction isallclear(uint  tokenId) public {\r\n    \r\n\r\n\r\n\r\n    if(availables[tokenId] || waterrs[tokenId] || eleccs[tokenId] || loanns[tokenId] )\r\n        {\r\n        \r\n        services[tokenId]=true;\r\n       \r\n        }\r\n    }\r\n\r\n\r\n     function transfer(address from, address to,uint tokenId,string memory no,string memory fname,string memory lname) public {\r\n\r\n        require(msg.sender==owner(tokenId));\r\n\r\n      require (services[tokenId]);\r\n        \r\n        landOwner[tokenId]=to;\r\n          Citizen memory _post = posts[tokenId];\r\n          _post.owner=to;\r\n           _post.fname=fname;\r\n            _post.lname=lname;\r\n             _post.adhaarno=no;\r\n\r\n          posts[tokenId]=_post;\r\n services[tokenId]=false;\r\n   //checkvalues[mland]=false;\r\n    availables[tokenId]=false;\r\n    waterrs[tokenId]=false;\r\n    eleccs[tokenId]=false;\r\n    loanns[tokenId]=false;\r\n         emit PostCreated(_post.adhaarno,_post.fname,_post.lname,_post.tokenid,_post.owner,false,false,false,false);\r\n    }\r\n}",
  "sourcePath": "E:/land/lanp/l/contracts/Land.sol",
  "compiler": {
    "name": "solc",
    "version": "0.5.8+commit.23d335f2.Emscripten.clang"
  },
  "schemaVersion": "3.0.15",
  "updatedAt": "2020-03-14T13:35:26.153Z",
  "devdoc": {
    "methods": {
      "approve(address,uint256)": {
        "details": "Approves another address to transfer the given token ID The zero address indicates there is no approved address. There can only be one approved address per token at a given time. Can only be called by the token owner or an approved operator.",
        "params": {
          "to": "address to be approved for the given token ID",
          "tokenId": "uint256 ID of the token to be approved"
        }
      },
      "balanceOf(address)": {
        "details": "Gets the balance of the specified address.",
        "params": {
          "owner": "address to query the balance of"
        },
        "return": "uint256 representing the amount owned by the passed address"
      },
      "baseURI()": {
        "details": "Returns the base URI set via {_setBaseURI}. This will be automatically added as a preffix in {tokenURI} to each token's URI, when they are non-empty.    * _Available since v2.5.0._"
      },
      "getApproved(uint256)": {
        "details": "Gets the approved address for a token ID, or zero if no address set Reverts if the token ID does not exist.",
        "params": {
          "tokenId": "uint256 ID of the token to query the approval of"
        },
        "return": "address currently approved for the given token ID"
      },
      "isApprovedForAll(address,address)": {
        "details": "Tells whether an operator is approved by a given owner.",
        "params": {
          "operator": "operator address which you want to query the approval of",
          "owner": "owner address which you want to query the approval of"
        },
        "return": "bool whether the given operator is approved by the given owner"
      },
      "name()": {
        "details": "Gets the token name.",
        "return": "string representing the token name"
      },
      "ownerOf(uint256)": {
        "details": "Gets the owner of the specified token ID.",
        "params": {
          "tokenId": "uint256 ID of the token to query the owner of"
        },
        "return": "address currently marked as the owner of the given token ID"
      },
      "safeTransferFrom(address,address,uint256)": {
        "details": "Safely transfers the ownership of a given token ID to another address If the target address is a contract, it must implement {IERC721Receiver-onERC721Received}, which is called upon a safe transfer, and return the magic value `bytes4(keccak256(\"onERC721Received(address,address,uint256,bytes)\"))`; otherwise, the transfer is reverted. Requires the msg.sender to be the owner, approved, or operator",
        "params": {
          "from": "current owner of the token",
          "to": "address to receive the ownership of the given token ID",
          "tokenId": "uint256 ID of the token to be transferred"
        }
      },
      "safeTransferFrom(address,address,uint256,bytes)": {
        "details": "Safely transfers the ownership of a given token ID to another address If the target address is a contract, it must implement {IERC721Receiver-onERC721Received}, which is called upon a safe transfer, and return the magic value `bytes4(keccak256(\"onERC721Received(address,address,uint256,bytes)\"))`; otherwise, the transfer is reverted. Requires the _msgSender() to be the owner, approved, or operator",
        "params": {
          "_data": "bytes data to send along with a safe transfer check",
          "from": "current owner of the token",
          "to": "address to receive the ownership of the given token ID",
          "tokenId": "uint256 ID of the token to be transferred"
        }
      },
      "setApprovalForAll(address,bool)": {
        "details": "Sets or unsets the approval of a given operator An operator is allowed to transfer all tokens of the sender on their behalf.",
        "params": {
          "approved": "representing the status of the approval to be set",
          "to": "operator address to set the approval"
        }
      },
      "supportsInterface(bytes4)": {
        "details": "See {IERC165-supportsInterface}.     * Time complexity O(1), guaranteed to always use less than 30 000 gas."
      },
      "symbol()": {
        "details": "Gets the token symbol.",
        "return": "string representing the token symbol"
      },
      "tokenByIndex(uint256)": {
        "details": "Gets the token ID at a given index of all the tokens in this contract Reverts if the index is greater or equal to the total number of tokens.",
        "params": {
          "index": "uint256 representing the index to be accessed of the tokens list"
        },
        "return": "uint256 token ID at the given index of the tokens list"
      },
      "tokenOfOwnerByIndex(address,uint256)": {
        "details": "Gets the token ID at a given index of the tokens list of the requested owner.",
        "params": {
          "index": "uint256 representing the index to be accessed of the requested tokens list",
          "owner": "address owning the tokens list to be accessed"
        },
        "return": "uint256 token ID at the given index of the tokens list owned by the requested address"
      },
      "tokenURI(uint256)": {
        "details": "Returns the URI for a given token ID. May return an empty string.     * If the token's URI is non-empty and a base URI was set (via {_setBaseURI}), it will be added to the token ID's URI as a prefix.     * Reverts if the token ID does not exist."
      },
      "totalSupply()": {
        "details": "Gets the total amount of tokens stored by the contract.",
        "return": "uint256 representing the total amount of tokens"
      },
      "transferFrom(address,address,uint256)": {
        "details": "Transfers the ownership of a given token ID to another address. Usage of this method is discouraged, use {safeTransferFrom} whenever possible. Requires the msg.sender to be the owner, approved, or operator.",
        "params": {
          "from": "current owner of the token",
          "to": "address to receive the ownership of the given token ID",
          "tokenId": "uint256 ID of the token to be transferred"
        }
      }
    }
  },
  "userdoc": {
    "methods": {}
  }
}